{
  "_format": "hh-sol-artifact-1",
  "contractName": "MultisigWallet",
  "sourceName": "src/MultisigWallet.sol",
  "abi": [
    {
      "inputs": [
        {
          "internalType": "address[]",
          "name": "_owners",
          "type": "address[]"
        },
        {
          "internalType": "uint256",
          "name": "_required",
          "type": "uint256"
        }
      ],
      "stateMutability": "nonpayable",
      "type": "constructor"
    },
    {
      "anonymous": false,
      "inputs": [
        {
          "indexed": true,
          "internalType": "address",
          "name": "owner",
          "type": "address"
        },
        {
          "indexed": true,
          "internalType": "uint256",
          "name": "txIndex",
          "type": "uint256"
        }
      ],
      "name": "ConfirmTransaction",
      "type": "event"
    },
    {
      "anonymous": false,
      "inputs": [
        {
          "indexed": true,
          "internalType": "address",
          "name": "sender",
          "type": "address"
        },
        {
          "indexed": false,
          "internalType": "uint256",
          "name": "value",
          "type": "uint256"
        }
      ],
      "name": "Deposit",
      "type": "event"
    },
    {
      "anonymous": false,
      "inputs": [
        {
          "indexed": true,
          "internalType": "address",
          "name": "owner",
          "type": "address"
        },
        {
          "indexed": true,
          "internalType": "uint256",
          "name": "txIndex",
          "type": "uint256"
        }
      ],
      "name": "ExecuteTransaction",
      "type": "event"
    },
    {
      "anonymous": false,
      "inputs": [
        {
          "indexed": true,
          "internalType": "address",
          "name": "owner",
          "type": "address"
        }
      ],
      "name": "OwnerListed",
      "type": "event"
    },
    {
      "anonymous": false,
      "inputs": [
        {
          "indexed": true,
          "internalType": "address",
          "name": "owner",
          "type": "address"
        },
        {
          "indexed": true,
          "internalType": "uint256",
          "name": "txIndex",
          "type": "uint256"
        },
        {
          "indexed": true,
          "internalType": "address",
          "name": "to",
          "type": "address"
        },
        {
          "indexed": false,
          "internalType": "uint256",
          "name": "value",
          "type": "uint256"
        },
        {
          "indexed": false,
          "internalType": "bytes",
          "name": "data",
          "type": "bytes"
        }
      ],
      "name": "SubmitTransaction",
      "type": "event"
    },
    {
      "anonymous": false,
      "inputs": [
        {
          "indexed": true,
          "internalType": "address",
          "name": "vendor",
          "type": "address"
        }
      ],
      "name": "VendorApproved",
      "type": "event"
    },
    {
      "anonymous": false,
      "inputs": [
        {
          "indexed": true,
          "internalType": "address",
          "name": "vendor",
          "type": "address"
        }
      ],
      "name": "VendorConfirmed",
      "type": "event"
    },
    {
      "anonymous": false,
      "inputs": [
        {
          "indexed": true,
          "internalType": "address",
          "name": "vendor",
          "type": "address"
        }
      ],
      "name": "VendorProposed",
      "type": "event"
    },
    {
      "inputs": [
        {
          "internalType": "uint256",
          "name": "_txIndex",
          "type": "uint256"
        }
      ],
      "name": "approveTransaction",
      "outputs": [],
      "stateMutability": "nonpayable",
      "type": "function"
    },
    {
      "inputs": [
        {
          "internalType": "address",
          "name": "_vendor",
          "type": "address"
        }
      ],
      "name": "approveVendor",
      "outputs": [],
      "stateMutability": "nonpayable",
      "type": "function"
    },
    {
      "inputs": [
        {
          "internalType": "uint256",
          "name": "_txIndex",
          "type": "uint256"
        }
      ],
      "name": "executeTransaction",
      "outputs": [],
      "stateMutability": "nonpayable",
      "type": "function"
    },
    {
      "inputs": [
        {
          "internalType": "uint256",
          "name": "",
          "type": "uint256"
        },
        {
          "internalType": "address",
          "name": "",
          "type": "address"
        }
      ],
      "name": "isConfirmed",
      "outputs": [
        {
          "internalType": "bool",
          "name": "",
          "type": "bool"
        }
      ],
      "stateMutability": "view",
      "type": "function"
    },
    {
      "inputs": [
        {
          "internalType": "address",
          "name": "account",
          "type": "address"
        }
      ],
      "name": "isOwner",
      "outputs": [
        {
          "internalType": "bool",
          "name": "",
          "type": "bool"
        }
      ],
      "stateMutability": "view",
      "type": "function"
    },
    {
      "inputs": [
        {
          "internalType": "address",
          "name": "",
          "type": "address"
        }
      ],
      "name": "isVendorConfirmed",
      "outputs": [
        {
          "internalType": "bool",
          "name": "",
          "type": "bool"
        }
      ],
      "stateMutability": "view",
      "type": "function"
    },
    {
      "inputs": [
        {
          "internalType": "address",
          "name": "_vendor",
          "type": "address"
        }
      ],
      "name": "proposeVendor",
      "outputs": [],
      "stateMutability": "nonpayable",
      "type": "function"
    },
    {
      "inputs": [],
      "name": "required",
      "outputs": [
        {
          "internalType": "uint256",
          "name": "",
          "type": "uint256"
        }
      ],
      "stateMutability": "view",
      "type": "function"
    },
    {
      "inputs": [
        {
          "internalType": "address",
          "name": "_to",
          "type": "address"
        },
        {
          "internalType": "uint256",
          "name": "_value",
          "type": "uint256"
        },
        {
          "internalType": "bytes",
          "name": "_data",
          "type": "bytes"
        }
      ],
      "name": "submitTransaction",
      "outputs": [],
      "stateMutability": "nonpayable",
      "type": "function"
    },
    {
      "inputs": [
        {
          "internalType": "uint256",
          "name": "",
          "type": "uint256"
        }
      ],
      "name": "transactions",
      "outputs": [
        {
          "internalType": "address",
          "name": "to",
          "type": "address"
        },
        {
          "internalType": "uint256",
          "name": "value",
          "type": "uint256"
        },
        {
          "internalType": "bytes",
          "name": "data",
          "type": "bytes"
        },
        {
          "internalType": "bool",
          "name": "executed",
          "type": "bool"
        },
        {
          "internalType": "uint256",
          "name": "confirmations",
          "type": "uint256"
        }
      ],
      "stateMutability": "view",
      "type": "function"
    },
    {
      "inputs": [
        {
          "internalType": "address",
          "name": "",
          "type": "address"
        }
      ],
      "name": "vendorProposals",
      "outputs": [
        {
          "internalType": "uint256",
          "name": "",
          "type": "uint256"
        }
      ],
      "stateMutability": "view",
      "type": "function"
    },
    {
      "stateMutability": "payable",
      "type": "receive"
    }
  ],
  "bytecode": "0x60806040523480156200001157600080fd5b50604051620027303803806200273083398181016040528101906200003791906200056c565b60008251116200007e576040517f08c379a0000000000000000000000000000000000000000000000000000000008152600401620000759062000633565b60405180910390fd5b60008111801562000090575081518111155b620000d2576040517f08c379a0000000000000000000000000000000000000000000000000000000008152600401620000c990620006cb565b60405180910390fd5b60005b82518110156200022657600073ffffffffffffffffffffffffffffffffffffffff168382815181106200010d576200010c620006ed565b5b602002602001015173ffffffffffffffffffffffffffffffffffffffff16036200016e576040517f08c379a000000000000000000000000000000000000000000000000000000000815260040162000165906200076c565b60405180910390fd5b620001a1838281518110620001885762000187620006ed565b5b602002602001015160006200023660201b90919060201c565b15620001e4576040517f08c379a0000000000000000000000000000000000000000000000000000000008152600401620001db90620007de565b60405180910390fd5b62000217838281518110620001fe57620001fd620006ed565b5b602002602001015160006200026e60201b90919060201c565b508080600101915050620000d5565b5080600281905550505062000800565b600062000266836000018373ffffffffffffffffffffffffffffffffffffffff1660001b620002a660201b60201c565b905092915050565b60006200029e836000018373ffffffffffffffffffffffffffffffffffffffff1660001b620002c960201b60201c565b905092915050565b600080836001016000848152602001908152602001600020541415905092915050565b6000620002dd8383620002a660201b60201c565b620003385782600001829080600181540180825580915050600190039060005260206000200160009091909190915055826000018054905083600101600084815260200190815260200160002081905550600190506200033d565b600090505b92915050565b6000604051905090565b600080fd5b600080fd5b600080fd5b6000601f19601f8301169050919050565b7f4e487b7100000000000000000000000000000000000000000000000000000000600052604160045260246000fd5b620003a7826200035c565b810181811067ffffffffffffffff82111715620003c957620003c86200036d565b5b80604052505050565b6000620003de62000343565b9050620003ec82826200039c565b919050565b600067ffffffffffffffff8211156200040f576200040e6200036d565b5b602082029050602081019050919050565b600080fd5b600073ffffffffffffffffffffffffffffffffffffffff82169050919050565b6000620004528262000425565b9050919050565b620004648162000445565b81146200047057600080fd5b50565b600081519050620004848162000459565b92915050565b6000620004a16200049b84620003f1565b620003d2565b90508083825260208201905060208402830185811115620004c757620004c662000420565b5b835b81811015620004f45780620004df888262000473565b845260208401935050602081019050620004c9565b5050509392505050565b600082601f83011262000516576200051562000357565b5b8151620005288482602086016200048a565b91505092915050565b6000819050919050565b620005468162000531565b81146200055257600080fd5b50565b60008151905062000566816200053b565b92915050565b600080604083850312156200058657620005856200034d565b5b600083015167ffffffffffffffff811115620005a757620005a662000352565b5b620005b585828601620004fe565b9250506020620005c88582860162000555565b9150509250929050565b600082825260208201905092915050565b7f6f776e6572732072657175697265640000000000000000000000000000000000600082015250565b60006200061b600f83620005d2565b91506200062882620005e3565b602082019050919050565b600060208201905081810360008301526200064e816200060c565b9050919050565b7f696e76616c6964207265717569726564206e756d626572206f66206f776e657260008201527f7300000000000000000000000000000000000000000000000000000000000000602082015250565b6000620006b3602183620005d2565b9150620006c08262000655565b604082019050919050565b60006020820190508181036000830152620006e681620006a4565b9050919050565b7f4e487b7100000000000000000000000000000000000000000000000000000000600052603260045260246000fd5b7f696e76616c6964206f776e657200000000000000000000000000000000000000600082015250565b600062000754600d83620005d2565b915062000761826200071c565b602082019050919050565b60006020820190508181036000830152620007878162000745565b9050919050565b7f6f776e6572206e6f7420756e6971756500000000000000000000000000000000600082015250565b6000620007c6601083620005d2565b9150620007d3826200078e565b602082019050919050565b60006020820190508181036000830152620007f981620007b7565b9050919050565b611f2080620008106000396000f3fe6080604052600436106100a05760003560e01c80639ace38c2116100645780639ace38c214610217578063c642747414610258578063db59dd0014610281578063dc8452cd146102aa578063ee22610b146102d5578063f8a52923146102fe576100f5565b8063242232d1146100fa5780632f54bf6e1461012357806369c4239b1461016057806380f59a651461019d5780638abe5598146101da576100f5565b366100f5573373ffffffffffffffffffffffffffffffffffffffff167fe1fffcc4923d04b559f4d29a8bfc6cda04eb5b0d3c460751c2402c5c5cc9109c346040516100eb91906111ea565b60405180910390a2005b600080fd5b34801561010657600080fd5b50610121600480360381019061011c919061123b565b610327565b005b34801561012f57600080fd5b5061014a600480360381019061014591906112c6565b610541565b604051610157919061130e565b60405180910390f35b34801561016c57600080fd5b50610187600480360381019061018291906112c6565b61055e565b604051610194919061130e565b60405180910390f35b3480156101a957600080fd5b506101c460048036038101906101bf9190611329565b61057e565b6040516101d1919061130e565b60405180910390f35b3480156101e657600080fd5b5061020160048036038101906101fc91906112c6565b6105ad565b60405161020e91906111ea565b60405180910390f35b34801561022357600080fd5b5061023e6004803603810190610239919061123b565b6105c5565b60405161024f959493929190611408565b60405180910390f35b34801561026457600080fd5b5061027f600480360381019061027a91906114c7565b6106c0565b005b34801561028d57600080fd5b506102a860048036038101906102a391906112c6565b6108c6565b005b3480156102b657600080fd5b506102bf610a8a565b6040516102cc91906111ea565b60405180910390f35b3480156102e157600080fd5b506102fc60048036038101906102f7919061123b565b610a90565b005b34801561030a57600080fd5b50610325600480360381019061032091906112c6565b610d97565b005b61033033610541565b61036f576040517f08c379a000000000000000000000000000000000000000000000000000000000815260040161036690611598565b60405180910390fd5b60038054905081106103b6576040517f08c379a00000000000000000000000000000000000000000000000000000000081526004016103ad90611604565b60405180910390fd5b6004600082815260200190815260200160002060003373ffffffffffffffffffffffffffffffffffffffff1673ffffffffffffffffffffffffffffffffffffffff16815260200190815260200160002060009054906101000a900460ff1615610454576040517f08c379a000000000000000000000000000000000000000000000000000000000815260040161044b90611670565b60405180910390fd5b60016003828154811061046a57610469611690565b5b9060005260206000209060050201600401600082825461048a91906116ee565b9250508190555060016004600083815260200190815260200160002060003373ffffffffffffffffffffffffffffffffffffffff1673ffffffffffffffffffffffffffffffffffffffff16815260200190815260200160002060006101000a81548160ff021916908315150217905550803373ffffffffffffffffffffffffffffffffffffffff167f5cbe105e36805f7820e291f799d5794ff948af2a5f664e580382defb6339004160405160405180910390a350565b600061055782600061117e90919063ffffffff16565b9050919050565b60066020528060005260406000206000915054906101000a900460ff1681565b60046020528160005260406000206020528060005260406000206000915091509054906101000a900460ff1681565b60056020528060005260406000206000915090505481565b600381815481106105d557600080fd5b90600052602060002090600502016000915090508060000160009054906101000a900473ffffffffffffffffffffffffffffffffffffffff169080600101549080600201805461062490611751565b80601f016020809104026020016040519081016040528092919081815260200182805461065090611751565b801561069d5780601f106106725761010080835404028352916020019161069d565b820191906000526020600020905b81548152906001019060200180831161068057829003601f168201915b5050505050908060030160009054906101000a900460ff16908060040154905085565b6106c933610541565b610708576040517f08c379a00000000000000000000000000000000000000000000000000000000081526004016106ff90611598565b60405180910390fd5b6000600380549050905060036040518060a001604052808773ffffffffffffffffffffffffffffffffffffffff16815260200186815260200185858080601f016020809104026020016040519081016040528093929190818152602001838380828437600081840152601f19601f8201169050808301925050505050505081526020016000151581526020016000815250908060018154018082558091505060019003906000526020600020906005020160009091909190915060008201518160000160006101000a81548173ffffffffffffffffffffffffffffffffffffffff021916908373ffffffffffffffffffffffffffffffffffffffff160217905550602082015181600101556040820151816002019081610828919061195d565b5060608201518160030160006101000a81548160ff0219169083151502179055506080820151816004015550508473ffffffffffffffffffffffffffffffffffffffff16813373ffffffffffffffffffffffffffffffffffffffff167fd5a05bf70715ad82a09a756320284a1b54c9ff74cd0f8cce6219e79b563fe59d8787876040516108b793929190611a6b565b60405180910390a45050505050565b6108cf33610541565b61090e576040517f08c379a000000000000000000000000000000000000000000000000000000000815260040161090590611598565b60405180910390fd5b600073ffffffffffffffffffffffffffffffffffffffff168173ffffffffffffffffffffffffffffffffffffffff160361097d576040517f08c379a000000000000000000000000000000000000000000000000000000000815260040161097490611ae9565b60405180910390fd5b6000600560008373ffffffffffffffffffffffffffffffffffffffff1673ffffffffffffffffffffffffffffffffffffffff16815260200190815260200160002054146109ff576040517f08c379a00000000000000000000000000000000000000000000000000000000081526004016109f690611b55565b60405180910390fd5b6001600560008373ffffffffffffffffffffffffffffffffffffffff1673ffffffffffffffffffffffffffffffffffffffff168152602001908152602001600020819055508073ffffffffffffffffffffffffffffffffffffffff167f34403c931d91256cfd050c4cc53a85f7a890842915b19eddd04cd92c7282d34360405160405180910390a250565b60025481565b610a9933610541565b610ad8576040517f08c379a0000000000000000000000000000000000000000000000000000000008152600401610acf90611598565b60405180910390fd5b6003805490508110610b1f576040517f08c379a0000000000000000000000000000000000000000000000000000000008152600401610b1690611604565b60405180910390fd5b600060038281548110610b3557610b34611690565b5b906000526020600020906005020190508060030160009054906101000a900460ff1615610b97576040517f08c379a0000000000000000000000000000000000000000000000000000000008152600401610b8e90611bc1565b60405180910390fd5b6002548160040154101580610c195750600660008260000160009054906101000a900473ffffffffffffffffffffffffffffffffffffffff1673ffffffffffffffffffffffffffffffffffffffff1673ffffffffffffffffffffffffffffffffffffffff16815260200190815260200160002060009054906101000a900460ff165b610c58576040517f08c379a0000000000000000000000000000000000000000000000000000000008152600401610c4f90611c2d565b60405180910390fd5b60018160030160006101000a81548160ff02191690831515021790555060008160000160009054906101000a900473ffffffffffffffffffffffffffffffffffffffff1673ffffffffffffffffffffffffffffffffffffffff16826001015483600201604051610cc89190611cdb565b60006040518083038185875af1925050503d8060008114610d05576040519150601f19603f3d011682016040523d82523d6000602084013e610d0a565b606091505b5050905080610d4e576040517f08c379a0000000000000000000000000000000000000000000000000000000008152600401610d4590611d3e565b60405180910390fd5b823373ffffffffffffffffffffffffffffffffffffffff167f5445f318f4f5fcfb66592e68e0cc5822aa15664039bd5f0ffde24c5a8142b1ac60405160405180910390a3505050565b610da033610541565b610ddf576040517f08c379a0000000000000000000000000000000000000000000000000000000008152600401610dd690611598565b60405180910390fd5b600073ffffffffffffffffffffffffffffffffffffffff168173ffffffffffffffffffffffffffffffffffffffff1603610e4e576040517f08c379a0000000000000000000000000000000000000000000000000000000008152600401610e4590611daa565b60405180910390fd5b6000600560008373ffffffffffffffffffffffffffffffffffffffff1673ffffffffffffffffffffffffffffffffffffffff1681526020019081526020016000205411610ed0576040517f08c379a0000000000000000000000000000000000000000000000000000000008152600401610ec790611e16565b60405180910390fd5b600660008273ffffffffffffffffffffffffffffffffffffffff1673ffffffffffffffffffffffffffffffffffffffff16815260200190815260200160002060009054906101000a900460ff1615610f5d576040517f08c379a0000000000000000000000000000000000000000000000000000000008152600401610f5490611e82565b60405180910390fd5b600254600560008373ffffffffffffffffffffffffffffffffffffffff1673ffffffffffffffffffffffffffffffffffffffff16815260200190815260200160002054101561103f57600560008273ffffffffffffffffffffffffffffffffffffffff1673ffffffffffffffffffffffffffffffffffffffff1681526020019081526020016000206000815480929190610ff690611ea2565b91905055508073ffffffffffffffffffffffffffffffffffffffff167f922f98fcca08712aa87d1f5cb1a1e16c1be752c228e5499c967497dd4c6d569d60405160405180910390a25b600254600560008373ffffffffffffffffffffffffffffffffffffffff1673ffffffffffffffffffffffffffffffffffffffff16815260200190815260200160002054101580156110da5750600660008273ffffffffffffffffffffffffffffffffffffffff1673ffffffffffffffffffffffffffffffffffffffff16815260200190815260200160002060009054906101000a900460ff16155b1561117b576001600660008373ffffffffffffffffffffffffffffffffffffffff1673ffffffffffffffffffffffffffffffffffffffff16815260200190815260200160002060006101000a81548160ff0219169083151502179055508073ffffffffffffffffffffffffffffffffffffffff167f9282eabb673eecd3d64575cdf2eb5f31b8afbb9bee6014f20c0bc3a89b372b4760405160405180910390a25b50565b60006111a6836000018373ffffffffffffffffffffffffffffffffffffffff1660001b6111ae565b905092915050565b600080836001016000848152602001908152602001600020541415905092915050565b6000819050919050565b6111e4816111d1565b82525050565b60006020820190506111ff60008301846111db565b92915050565b600080fd5b600080fd5b611218816111d1565b811461122357600080fd5b50565b6000813590506112358161120f565b92915050565b60006020828403121561125157611250611205565b5b600061125f84828501611226565b91505092915050565b600073ffffffffffffffffffffffffffffffffffffffff82169050919050565b600061129382611268565b9050919050565b6112a381611288565b81146112ae57600080fd5b50565b6000813590506112c08161129a565b92915050565b6000602082840312156112dc576112db611205565b5b60006112ea848285016112b1565b91505092915050565b60008115159050919050565b611308816112f3565b82525050565b600060208201905061132360008301846112ff565b92915050565b600080604083850312156113405761133f611205565b5b600061134e85828601611226565b925050602061135f858286016112b1565b9150509250929050565b61137281611288565b82525050565b600081519050919050565b600082825260208201905092915050565b60005b838110156113b2578082015181840152602081019050611397565b60008484015250505050565b6000601f19601f8301169050919050565b60006113da82611378565b6113e48185611383565b93506113f4818560208601611394565b6113fd816113be565b840191505092915050565b600060a08201905061141d6000830188611369565b61142a60208301876111db565b818103604083015261143c81866113cf565b905061144b60608301856112ff565b61145860808301846111db565b9695505050505050565b600080fd5b600080fd5b600080fd5b60008083601f84011261148757611486611462565b5b8235905067ffffffffffffffff8111156114a4576114a3611467565b5b6020830191508360018202830111156114c0576114bf61146c565b5b9250929050565b600080600080606085870312156114e1576114e0611205565b5b60006114ef878288016112b1565b945050602061150087828801611226565b935050604085013567ffffffffffffffff8111156115215761152061120a565b5b61152d87828801611471565b925092505092959194509250565b600082825260208201905092915050565b7f63616c6c6572206973206e6f7420616e206f776e657200000000000000000000600082015250565b600061158260168361153b565b915061158d8261154c565b602082019050919050565b600060208201905081810360008301526115b181611575565b9050919050565b7f747820646f6573206e6f74206578697374000000000000000000000000000000600082015250565b60006115ee60118361153b565b91506115f9826115b8565b602082019050919050565b6000602082019050818103600083015261161d816115e1565b9050919050565b7f747820616c726561647920636f6e6669726d6564000000000000000000000000600082015250565b600061165a60148361153b565b915061166582611624565b602082019050919050565b600060208201905081810360008301526116898161164d565b9050919050565b7f4e487b7100000000000000000000000000000000000000000000000000000000600052603260045260246000fd5b7f4e487b7100000000000000000000000000000000000000000000000000000000600052601160045260246000fd5b60006116f9826111d1565b9150611704836111d1565b925082820190508082111561171c5761171b6116bf565b5b92915050565b7f4e487b7100000000000000000000000000000000000000000000000000000000600052602260045260246000fd5b6000600282049050600182168061176957607f821691505b60208210810361177c5761177b611722565b5b50919050565b7f4e487b7100000000000000000000000000000000000000000000000000000000600052604160045260246000fd5b60008190508160005260206000209050919050565b60006020601f8301049050919050565b600082821b905092915050565b6000600883026118137fffffffffffffffffffffffffffffffffffffffffffffffffffffffffffffffff826117d6565b61181d86836117d6565b95508019841693508086168417925050509392505050565b6000819050919050565b600061185a611855611850846111d1565b611835565b6111d1565b9050919050565b6000819050919050565b6118748361183f565b61188861188082611861565b8484546117e3565b825550505050565b600090565b61189d611890565b6118a881848461186b565b505050565b5b818110156118cc576118c1600082611895565b6001810190506118ae565b5050565b601f821115611911576118e2816117b1565b6118eb846117c6565b810160208510156118fa578190505b61190e611906856117c6565b8301826118ad565b50505b505050565b600082821c905092915050565b600061193460001984600802611916565b1980831691505092915050565b600061194d8383611923565b9150826002028217905092915050565b61196682611378565b67ffffffffffffffff81111561197f5761197e611782565b5b6119898254611751565b6119948282856118d0565b600060209050601f8311600181146119c757600084156119b5578287015190505b6119bf8582611941565b865550611a27565b601f1984166119d5866117b1565b60005b828110156119fd578489015182556001820191506020850194506020810190506119d8565b86831015611a1a5784890151611a16601f891682611923565b8355505b6001600288020188555050505b505050505050565b82818337600083830152505050565b6000611a4a8385611383565b9350611a57838584611a2f565b611a60836113be565b840190509392505050565b6000604082019050611a8060008301866111db565b8181036020830152611a93818486611a3e565b9050949350505050565b7f496e76616c69642076656e646f72206164647265737300000000000000000000600082015250565b6000611ad360168361153b565b9150611ade82611a9d565b602082019050919050565b60006020820190508181036000830152611b0281611ac6565b9050919050565b7f56656e646f7220616c72656164792070726f706f736564000000000000000000600082015250565b6000611b3f60178361153b565b9150611b4a82611b09565b602082019050919050565b60006020820190508181036000830152611b6e81611b32565b9050919050565b7f747820616c726561647920657865637574656400000000000000000000000000600082015250565b6000611bab60138361153b565b9150611bb682611b75565b602082019050919050565b60006020820190508181036000830152611bda81611b9e565b9050919050565b7f63616e6e6f742065786563757465207478000000000000000000000000000000600082015250565b6000611c1760118361153b565b9150611c2282611be1565b602082019050919050565b60006020820190508181036000830152611c4681611c0a565b9050919050565b600081905092915050565b60008154611c6581611751565b611c6f8186611c4d565b94506001821660008114611c8a5760018114611c9f57611cd2565b60ff1983168652811515820286019350611cd2565b611ca8856117b1565b60005b83811015611cca57815481890152600182019150602081019050611cab565b838801955050505b50505092915050565b6000611ce78284611c58565b915081905092915050565b7f7478206661696c65640000000000000000000000000000000000000000000000600082015250565b6000611d2860098361153b565b9150611d3382611cf2565b602082019050919050565b60006020820190508181036000830152611d5781611d1b565b9050919050565b7f496e76616c69642056656e646f72204164647265737300000000000000000000600082015250565b6000611d9460168361153b565b9150611d9f82611d5e565b602082019050919050565b60006020820190508181036000830152611dc381611d87565b9050919050565b7f56656e646f72206e6f742070726f706f73656400000000000000000000000000600082015250565b6000611e0060138361153b565b9150611e0b82611dca565b602082019050919050565b60006020820190508181036000830152611e2f81611df3565b9050919050565b7f56656e646f7220616c726561647920636f6e6669726d65640000000000000000600082015250565b6000611e6c60188361153b565b9150611e7782611e36565b602082019050919050565b60006020820190508181036000830152611e9b81611e5f565b9050919050565b6000611ead826111d1565b91507fffffffffffffffffffffffffffffffffffffffffffffffffffffffffffffffff8203611edf57611ede6116bf565b5b60018201905091905056fea264697066735822122087e14b0a6b478cfa188a898b5add9c0d4fc4d782fbf6d8816b4d2d8f5d30e09c64736f6c63430008170033",
  "linkReferences": {},
  "deployedLinkReferences": {}
}