{
  "_format": "hh-sol-artifact-1",
  "contractName": "AllowlistNFT",
  "sourceName": "src/AllowlistNFT.sol",
  "abi": [
    {
      "inputs": [
        {
          "internalType": "string",
          "name": "_name",
          "type": "string"
        },
        {
          "internalType": "string",
          "name": "_ticker",
          "type": "string"
        },
        {
          "internalType": "bytes32",
          "name": "_allowlistRoot",
          "type": "bytes32"
        },
        {
          "internalType": "uint256",
          "name": "_maxSupply",
          "type": "uint256"
        },
        {
          "internalType": "uint120",
          "name": "_price",
          "type": "uint120"
        },
        {
          "internalType": "uint120",
          "name": "_allowlistPrice",
          "type": "uint120"
        },
        {
          "internalType": "uint64",
          "name": "_allowlistOpen",
          "type": "uint64"
        },
        {
          "internalType": "uint64",
          "name": "_allowlistClose",
          "type": "uint64"
        },
        {
          "internalType": "uint64",
          "name": "_maxAllowlistMint",
          "type": "uint64"
        },
        {
          "internalType": "uint64",
          "name": "_maxPublicMint",
          "type": "uint64"
        },
        {
          "internalType": "string",
          "name": "_uri",
          "type": "string"
        }
      ],
      "stateMutability": "nonpayable",
      "type": "constructor"
    },
    {
      "inputs": [],
      "name": "AllowlistMintUnauthorized",
      "type": "error"
    },
    {
      "inputs": [],
      "name": "AllowlistNotLive",
      "type": "error"
    },
    {
      "inputs": [],
      "name": "ApprovalCallerNotOwnerNorApproved",
      "type": "error"
    },
    {
      "inputs": [],
      "name": "ApprovalQueryForNonexistentToken",
      "type": "error"
    },
    {
      "inputs": [],
      "name": "BalanceQueryForZeroAddress",
      "type": "error"
    },
    {
      "inputs": [],
      "name": "InsufficientPayment",
      "type": "error"
    },
    {
      "inputs": [],
      "name": "InvalidAllowlistWindow",
      "type": "error"
    },
    {
      "inputs": [],
      "name": "MintERC2309QuantityExceedsLimit",
      "type": "error"
    },
    {
      "inputs": [],
      "name": "MintExceeded",
      "type": "error"
    },
    {
      "inputs": [],
      "name": "MintNotLive",
      "type": "error"
    },
    {
      "inputs": [],
      "name": "MintToZeroAddress",
      "type": "error"
    },
    {
      "inputs": [],
      "name": "MintZeroQuantity",
      "type": "error"
    },
    {
      "inputs": [],
      "name": "NotCompatibleWithSpotMints",
      "type": "error"
    },
    {
      "inputs": [
        {
          "internalType": "address",
          "name": "owner",
          "type": "address"
        }
      ],
      "name": "OwnableInvalidOwner",
      "type": "error"
    },
    {
      "inputs": [
        {
          "internalType": "address",
          "name": "account",
          "type": "address"
        }
      ],
      "name": "OwnableUnauthorizedAccount",
      "type": "error"
    },
    {
      "inputs": [],
      "name": "OwnerQueryForNonexistentToken",
      "type": "error"
    },
    {
      "inputs": [],
      "name": "OwnershipNotInitializedForExtraData",
      "type": "error"
    },
    {
      "inputs": [],
      "name": "PublicMintNotLive",
      "type": "error"
    },
    {
      "inputs": [],
      "name": "SequentialMintExceedsLimit",
      "type": "error"
    },
    {
      "inputs": [],
      "name": "SequentialUpToTooSmall",
      "type": "error"
    },
    {
      "inputs": [],
      "name": "SpotMintTokenIdTooSmall",
      "type": "error"
    },
    {
      "inputs": [],
      "name": "SupplyExceeded",
      "type": "error"
    },
    {
      "inputs": [],
      "name": "TokenAlreadyExists",
      "type": "error"
    },
    {
      "inputs": [],
      "name": "TokenDoesNotExist",
      "type": "error"
    },
    {
      "inputs": [],
      "name": "TransferCallerNotOwnerNorApproved",
      "type": "error"
    },
    {
      "inputs": [],
      "name": "TransferFromIncorrectOwner",
      "type": "error"
    },
    {
      "inputs": [],
      "name": "TransferToNonERC721ReceiverImplementer",
      "type": "error"
    },
    {
      "inputs": [],
      "name": "TransferToZeroAddress",
      "type": "error"
    },
    {
      "inputs": [],
      "name": "URIQueryForNonexistentToken",
      "type": "error"
    },
    {
      "anonymous": false,
      "inputs": [
        {
          "indexed": true,
          "internalType": "address",
          "name": "owner",
          "type": "address"
        },
        {
          "indexed": true,
          "internalType": "address",
          "name": "approved",
          "type": "address"
        },
        {
          "indexed": true,
          "internalType": "uint256",
          "name": "tokenId",
          "type": "uint256"
        }
      ],
      "name": "Approval",
      "type": "event"
    },
    {
      "anonymous": false,
      "inputs": [
        {
          "indexed": true,
          "internalType": "address",
          "name": "owner",
          "type": "address"
        },
        {
          "indexed": true,
          "internalType": "address",
          "name": "operator",
          "type": "address"
        },
        {
          "indexed": false,
          "internalType": "bool",
          "name": "approved",
          "type": "bool"
        }
      ],
      "name": "ApprovalForAll",
      "type": "event"
    },
    {
      "anonymous": false,
      "inputs": [
        {
          "indexed": true,
          "internalType": "uint256",
          "name": "fromTokenId",
          "type": "uint256"
        },
        {
          "indexed": false,
          "internalType": "uint256",
          "name": "toTokenId",
          "type": "uint256"
        },
        {
          "indexed": true,
          "internalType": "address",
          "name": "from",
          "type": "address"
        },
        {
          "indexed": true,
          "internalType": "address",
          "name": "to",
          "type": "address"
        }
      ],
      "name": "ConsecutiveTransfer",
      "type": "event"
    },
    {
      "anonymous": false,
      "inputs": [
        {
          "indexed": true,
          "internalType": "address",
          "name": "previousOwner",
          "type": "address"
        },
        {
          "indexed": true,
          "internalType": "address",
          "name": "newOwner",
          "type": "address"
        }
      ],
      "name": "OwnershipTransferStarted",
      "type": "event"
    },
    {
      "anonymous": false,
      "inputs": [
        {
          "indexed": true,
          "internalType": "address",
          "name": "previousOwner",
          "type": "address"
        },
        {
          "indexed": true,
          "internalType": "address",
          "name": "newOwner",
          "type": "address"
        }
      ],
      "name": "OwnershipTransferred",
      "type": "event"
    },
    {
      "anonymous": false,
      "inputs": [
        {
          "indexed": true,
          "internalType": "address",
          "name": "from",
          "type": "address"
        },
        {
          "indexed": true,
          "internalType": "address",
          "name": "to",
          "type": "address"
        },
        {
          "indexed": true,
          "internalType": "uint256",
          "name": "tokenId",
          "type": "uint256"
        }
      ],
      "name": "Transfer",
      "type": "event"
    },
    {
      "inputs": [],
      "name": "MAX_SUPPLY",
      "outputs": [
        {
          "internalType": "uint256",
          "name": "",
          "type": "uint256"
        }
      ],
      "stateMutability": "view",
      "type": "function"
    },
    {
      "inputs": [],
      "name": "acceptOwnership",
      "outputs": [],
      "stateMutability": "nonpayable",
      "type": "function"
    },
    {
      "inputs": [],
      "name": "allowlistClose",
      "outputs": [
        {
          "internalType": "uint64",
          "name": "",
          "type": "uint64"
        }
      ],
      "stateMutability": "view",
      "type": "function"
    },
    {
      "inputs": [
        {
          "internalType": "bytes32[]",
          "name": "_proof",
          "type": "bytes32[]"
        },
        {
          "internalType": "uint256",
          "name": "_amount",
          "type": "uint256"
        }
      ],
      "name": "allowlistMint",
      "outputs": [],
      "stateMutability": "payable",
      "type": "function"
    },
    {
      "inputs": [],
      "name": "allowlistOpen",
      "outputs": [
        {
          "internalType": "uint64",
          "name": "",
          "type": "uint64"
        }
      ],
      "stateMutability": "view",
      "type": "function"
    },
    {
      "inputs": [],
      "name": "allowlistPrice",
      "outputs": [
        {
          "internalType": "uint120",
          "name": "",
          "type": "uint120"
        }
      ],
      "stateMutability": "view",
      "type": "function"
    },
    {
      "inputs": [],
      "name": "allowlistRoot",
      "outputs": [
        {
          "internalType": "bytes32",
          "name": "",
          "type": "bytes32"
        }
      ],
      "stateMutability": "view",
      "type": "function"
    },
    {
      "inputs": [
        {
          "internalType": "address",
          "name": "to",
          "type": "address"
        },
        {
          "internalType": "uint256",
          "name": "tokenId",
          "type": "uint256"
        }
      ],
      "name": "approve",
      "outputs": [],
      "stateMutability": "payable",
      "type": "function"
    },
    {
      "inputs": [
        {
          "internalType": "address",
          "name": "owner",
          "type": "address"
        }
      ],
      "name": "balanceOf",
      "outputs": [
        {
          "internalType": "uint256",
          "name": "",
          "type": "uint256"
        }
      ],
      "stateMutability": "view",
      "type": "function"
    },
    {
      "inputs": [
        {
          "internalType": "uint256",
          "name": "tokenId",
          "type": "uint256"
        }
      ],
      "name": "getApproved",
      "outputs": [
        {
          "internalType": "address",
          "name": "",
          "type": "address"
        }
      ],
      "stateMutability": "view",
      "type": "function"
    },
    {
      "inputs": [
        {
          "internalType": "address",
          "name": "owner",
          "type": "address"
        },
        {
          "internalType": "address",
          "name": "operator",
          "type": "address"
        }
      ],
      "name": "isApprovedForAll",
      "outputs": [
        {
          "internalType": "bool",
          "name": "",
          "type": "bool"
        }
      ],
      "stateMutability": "view",
      "type": "function"
    },
    {
      "inputs": [],
      "name": "live",
      "outputs": [
        {
          "internalType": "bool",
          "name": "",
          "type": "bool"
        }
      ],
      "stateMutability": "view",
      "type": "function"
    },
    {
      "inputs": [],
      "name": "maxAllowlistMint",
      "outputs": [
        {
          "internalType": "uint64",
          "name": "",
          "type": "uint64"
        }
      ],
      "stateMutability": "view",
      "type": "function"
    },
    {
      "inputs": [],
      "name": "maxPublicMint",
      "outputs": [
        {
          "internalType": "uint64",
          "name": "",
          "type": "uint64"
        }
      ],
      "stateMutability": "view",
      "type": "function"
    },
    {
      "inputs": [],
      "name": "name",
      "outputs": [
        {
          "internalType": "string",
          "name": "",
          "type": "string"
        }
      ],
      "stateMutability": "view",
      "type": "function"
    },
    {
      "inputs": [],
      "name": "owner",
      "outputs": [
        {
          "internalType": "address",
          "name": "",
          "type": "address"
        }
      ],
      "stateMutability": "view",
      "type": "function"
    },
    {
      "inputs": [
        {
          "internalType": "uint256",
          "name": "tokenId",
          "type": "uint256"
        }
      ],
      "name": "ownerOf",
      "outputs": [
        {
          "internalType": "address",
          "name": "",
          "type": "address"
        }
      ],
      "stateMutability": "view",
      "type": "function"
    },
    {
      "inputs": [],
      "name": "pendingOwner",
      "outputs": [
        {
          "internalType": "address",
          "name": "",
          "type": "address"
        }
      ],
      "stateMutability": "view",
      "type": "function"
    },
    {
      "inputs": [],
      "name": "price",
      "outputs": [
        {
          "internalType": "uint120",
          "name": "",
          "type": "uint120"
        }
      ],
      "stateMutability": "view",
      "type": "function"
    },
    {
      "inputs": [
        {
          "internalType": "uint256",
          "name": "_amount",
          "type": "uint256"
        }
      ],
      "name": "publicMint",
      "outputs": [],
      "stateMutability": "payable",
      "type": "function"
    },
    {
      "inputs": [],
      "name": "renounceOwnership",
      "outputs": [],
      "stateMutability": "nonpayable",
      "type": "function"
    },
    {
      "inputs": [
        {
          "internalType": "address",
          "name": "from",
          "type": "address"
        },
        {
          "internalType": "address",
          "name": "to",
          "type": "address"
        },
        {
          "internalType": "uint256",
          "name": "tokenId",
          "type": "uint256"
        }
      ],
      "name": "safeTransferFrom",
      "outputs": [],
      "stateMutability": "payable",
      "type": "function"
    },
    {
      "inputs": [
        {
          "internalType": "address",
          "name": "from",
          "type": "address"
        },
        {
          "internalType": "address",
          "name": "to",
          "type": "address"
        },
        {
          "internalType": "uint256",
          "name": "tokenId",
          "type": "uint256"
        },
        {
          "internalType": "bytes",
          "name": "_data",
          "type": "bytes"
        }
      ],
      "name": "safeTransferFrom",
      "outputs": [],
      "stateMutability": "payable",
      "type": "function"
    },
    {
      "inputs": [
        {
          "internalType": "uint64",
          "name": "_allowlistOpen",
          "type": "uint64"
        },
        {
          "internalType": "uint64",
          "name": "_allowlistClose",
          "type": "uint64"
        }
      ],
      "name": "setAllowlistMintWindow",
      "outputs": [],
      "stateMutability": "nonpayable",
      "type": "function"
    },
    {
      "inputs": [
        {
          "internalType": "bytes32",
          "name": "_allowlistRoot",
          "type": "bytes32"
        }
      ],
      "name": "setAllowlistRoot",
      "outputs": [],
      "stateMutability": "nonpayable",
      "type": "function"
    },
    {
      "inputs": [
        {
          "internalType": "address",
          "name": "operator",
          "type": "address"
        },
        {
          "internalType": "bool",
          "name": "approved",
          "type": "bool"
        }
      ],
      "name": "setApprovalForAll",
      "outputs": [],
      "stateMutability": "nonpayable",
      "type": "function"
    },
    {
      "inputs": [
        {
          "internalType": "string",
          "name": "_uri",
          "type": "string"
        }
      ],
      "name": "setBaseUri",
      "outputs": [],
      "stateMutability": "nonpayable",
      "type": "function"
    },
    {
      "inputs": [
        {
          "internalType": "uint64",
          "name": "_maxAllowlistMint",
          "type": "uint64"
        },
        {
          "internalType": "uint64",
          "name": "_maxPublcMint",
          "type": "uint64"
        }
      ],
      "name": "setMaxMints",
      "outputs": [],
      "stateMutability": "nonpayable",
      "type": "function"
    },
    {
      "inputs": [
        {
          "internalType": "uint120",
          "name": "_price",
          "type": "uint120"
        },
        {
          "internalType": "uint120",
          "name": "_allowlistPrice",
          "type": "uint120"
        }
      ],
      "name": "setPrices",
      "outputs": [],
      "stateMutability": "nonpayable",
      "type": "function"
    },
    {
      "inputs": [
        {
          "internalType": "bytes4",
          "name": "interfaceId",
          "type": "bytes4"
        }
      ],
      "name": "supportsInterface",
      "outputs": [
        {
          "internalType": "bool",
          "name": "",
          "type": "bool"
        }
      ],
      "stateMutability": "view",
      "type": "function"
    },
    {
      "inputs": [],
      "name": "symbol",
      "outputs": [
        {
          "internalType": "string",
          "name": "",
          "type": "string"
        }
      ],
      "stateMutability": "view",
      "type": "function"
    },
    {
      "inputs": [],
      "name": "toggleLive",
      "outputs": [],
      "stateMutability": "nonpayable",
      "type": "function"
    },
    {
      "inputs": [
        {
          "internalType": "uint256",
          "name": "tokenId",
          "type": "uint256"
        }
      ],
      "name": "tokenURI",
      "outputs": [
        {
          "internalType": "string",
          "name": "",
          "type": "string"
        }
      ],
      "stateMutability": "view",
      "type": "function"
    },
    {
      "inputs": [],
      "name": "totalSupply",
      "outputs": [
        {
          "internalType": "uint256",
          "name": "result",
          "type": "uint256"
        }
      ],
      "stateMutability": "view",
      "type": "function"
    },
    {
      "inputs": [
        {
          "internalType": "address",
          "name": "from",
          "type": "address"
        },
        {
          "internalType": "address",
          "name": "to",
          "type": "address"
        },
        {
          "internalType": "uint256",
          "name": "tokenId",
          "type": "uint256"
        }
      ],
      "name": "transferFrom",
      "outputs": [],
      "stateMutability": "payable",
      "type": "function"
    },
    {
      "inputs": [
        {
          "internalType": "address",
          "name": "newOwner",
          "type": "address"
        }
      ],
      "name": "transferOwnership",
      "outputs": [],
      "stateMutability": "nonpayable",
      "type": "function"
    },
    {
      "inputs": [],
      "name": "withdraw",
      "outputs": [],
      "stateMutability": "nonpayable",
      "type": "function"
    }
  ],
  "bytecode": "0x60a06040523480156200001157600080fd5b5060405162003fcb38038062003fcb8339818101604052810190620000379190620006e5565b338b8b81600290816200004b919062000a90565b5080600390816200005d919062000a90565b506200006e6200031560201b60201c565b600081905550620000846200031560201b60201c565b620000946200031a60201b60201c565b1015620000b457620000b363fed8210f60e01b6200034260201b60201c565b5b5050600073ffffffffffffffffffffffffffffffffffffffff168173ffffffffffffffffffffffffffffffffffffffff16036200012b5760006040517f1e4fbdf700000000000000000000000000000000000000000000000000000000815260040162000122919062000bbc565b60405180910390fd5b6200013c816200034c60201b60201c565b508367ffffffffffffffff168567ffffffffffffffff1611156200018c576040517f65a527d800000000000000000000000000000000000000000000000000000000815260040160405180910390fd5b60008567ffffffffffffffff1603620001d1576040517f65a527d800000000000000000000000000000000000000000000000000000000815260040160405180910390fd5b88600b81905550876080818152505086600c60006101000a8154816effffffffffffffffffffffffffffff02191690836effffffffffffffffffffffffffffff16021790555085600c600f6101000a8154816effffffffffffffffffffffffffffff02191690836effffffffffffffffffffffffffffff16021790555084600d60106101000a81548167ffffffffffffffff021916908367ffffffffffffffff16021790555083600d60186101000a81548167ffffffffffffffff021916908367ffffffffffffffff16021790555080600e9081620002b1919062000a90565b5082600d60006101000a81548167ffffffffffffffff021916908367ffffffffffffffff16021790555081600d60086101000a81548167ffffffffffffffff021916908367ffffffffffffffff160217905550505050505050505050505062000bd9565b600090565b60007fffffffffffffffffffffffffffffffffffffffffffffffffffffffffffffffff905090565b8060005260046000fd5b600a60006101000a81549073ffffffffffffffffffffffffffffffffffffffff021916905562000382816200038560201b60201c565b50565b6000600960009054906101000a900473ffffffffffffffffffffffffffffffffffffffff16905081600960006101000a81548173ffffffffffffffffffffffffffffffffffffffff021916908373ffffffffffffffffffffffffffffffffffffffff1602179055508173ffffffffffffffffffffffffffffffffffffffff168173ffffffffffffffffffffffffffffffffffffffff167f8be0079c531659141344cd1fd0a4f28419497f9722a3daafe3b4186f6b6457e060405160405180910390a35050565b6000604051905090565b600080fd5b600080fd5b600080fd5b600080fd5b6000601f19601f8301169050919050565b7f4e487b7100000000000000000000000000000000000000000000000000000000600052604160045260246000fd5b620004b48262000469565b810181811067ffffffffffffffff82111715620004d657620004d56200047a565b5b80604052505050565b6000620004eb6200044b565b9050620004f98282620004a9565b919050565b600067ffffffffffffffff8211156200051c576200051b6200047a565b5b620005278262000469565b9050602081019050919050565b60005b838110156200055457808201518184015260208101905062000537565b60008484015250505050565b6000620005776200057184620004fe565b620004df565b90508281526020810184848401111562000596576200059562000464565b5b620005a384828562000534565b509392505050565b600082601f830112620005c357620005c26200045f565b5b8151620005d584826020860162000560565b91505092915050565b6000819050919050565b620005f381620005de565b8114620005ff57600080fd5b50565b6000815190506200061381620005e8565b92915050565b6000819050919050565b6200062e8162000619565b81146200063a57600080fd5b50565b6000815190506200064e8162000623565b92915050565b60006effffffffffffffffffffffffffffff82169050919050565b6200067a8162000654565b81146200068657600080fd5b50565b6000815190506200069a816200066f565b92915050565b600067ffffffffffffffff82169050919050565b620006bf81620006a0565b8114620006cb57600080fd5b50565b600081519050620006df81620006b4565b92915050565b60008060008060008060008060008060006101608c8e0312156200070e576200070d62000455565b5b60008c015167ffffffffffffffff8111156200072f576200072e6200045a565b5b6200073d8e828f01620005ab565b9b505060208c015167ffffffffffffffff8111156200076157620007606200045a565b5b6200076f8e828f01620005ab565b9a50506040620007828e828f0162000602565b9950506060620007958e828f016200063d565b9850506080620007a88e828f0162000689565b97505060a0620007bb8e828f0162000689565b96505060c0620007ce8e828f01620006ce565b95505060e0620007e18e828f01620006ce565b945050610100620007f58e828f01620006ce565b935050610120620008098e828f01620006ce565b9250506101408c015167ffffffffffffffff8111156200082e576200082d6200045a565b5b6200083c8e828f01620005ab565b9150509295989b509295989b9093969950565b600081519050919050565b7f4e487b7100000000000000000000000000000000000000000000000000000000600052602260045260246000fd5b60006002820490506001821680620008a257607f821691505b602082108103620008b857620008b76200085a565b5b50919050565b60008190508160005260206000209050919050565b60006020601f8301049050919050565b600082821b905092915050565b600060088302620009227fffffffffffffffffffffffffffffffffffffffffffffffffffffffffffffffff82620008e3565b6200092e8683620008e3565b95508019841693508086168417925050509392505050565b6000819050919050565b6000620009716200096b620009658462000619565b62000946565b62000619565b9050919050565b6000819050919050565b6200098d8362000950565b620009a56200099c8262000978565b848454620008f0565b825550505050565b600090565b620009bc620009ad565b620009c981848462000982565b505050565b5b81811015620009f157620009e5600082620009b2565b600181019050620009cf565b5050565b601f82111562000a405762000a0a81620008be565b62000a1584620008d3565b8101602085101562000a25578190505b62000a3d62000a3485620008d3565b830182620009ce565b50505b505050565b600082821c905092915050565b600062000a656000198460080262000a45565b1980831691505092915050565b600062000a80838362000a52565b9150826002028217905092915050565b62000a9b826200084f565b67ffffffffffffffff81111562000ab75762000ab66200047a565b5b62000ac3825462000889565b62000ad0828285620009f5565b600060209050601f83116001811462000b08576000841562000af3578287015190505b62000aff858262000a72565b86555062000b6f565b601f19841662000b1886620008be565b60005b8281101562000b425784890151825560018201915060208501945060208101905062000b1b565b8683101562000b62578489015162000b5e601f89168262000a52565b8355505b6001600288020188555050505b505050505050565b600073ffffffffffffffffffffffffffffffffffffffff82169050919050565b600062000ba48262000b77565b9050919050565b62000bb68162000b97565b82525050565b600060208201905062000bd3600083018462000bab565b92915050565b6080516133c862000c0360003960008181610b9e0152818161120601526112f201526133c86000f3fe60806040526004361061021a5760003560e01c806379ba509711610123578063a22cb465116100ab578063d0f3a0a71161006f578063d0f3a0a714610737578063e30c397814610762578063e985e9c51461078d578063ec0d7557146107ca578063f2fde38b146107e15761021a565b8063a22cb4651461065f578063b88d4fde14610688578063bcb49d9e146106a4578063c87b56dd146106cf578063cabadaa01461070c5761021a565b8063957aa58c116100f2578063957aa58c1461058a57806395d89b41146105b55780639c9c6669146105e0578063a035b1fe1461060b578063a0bcfc7f146106365761021a565b806379ba5097146104f45780638da5cb5b1461050b5780638e0acd121461053657806390967a521461055f5761021a565b806323b872dd116101a657806342842e0e1161017557806342842e0e1461041e5780635b7224601461043a5780636352211e1461046357806370a08231146104a0578063715018a6146104dd5761021a565b806323b872dd146103a45780632db11544146103c057806332cb6b0c146103dc5780633ccfd60b146104075761021a565b806308a4d141116101ed57806308a4d141146102ed578063095ea7b3146103185780631338a83f14610334578063152f6e121461035057806318160ddd146103795761021a565b806301ffc9a71461021f57806306fdde031461025c57806307c8c64014610287578063081812fc146102b0575b600080fd5b34801561022b57600080fd5b5061024660048036038101906102419190612558565b61080a565b60405161025391906125a0565b60405180910390f35b34801561026857600080fd5b5061027161089c565b60405161027e919061264b565b60405180910390f35b34801561029357600080fd5b506102ae60048036038101906102a991906126b4565b61092e565b005b3480156102bc57600080fd5b506102d760048036038101906102d2919061272a565b6109a8565b6040516102e49190612798565b60405180910390f35b3480156102f957600080fd5b50610302610a06565b60405161030f91906127d6565b60405180910390f35b610332600480360381019061032d919061281d565b610a20565b005b61034e600480360381019061034991906128c2565b610a30565b005b34801561035c57600080fd5b506103776004803603810190610372919061294e565b610cf4565b005b34801561038557600080fd5b5061038e610de4565b60405161039b919061299d565b60405180910390f35b6103be60048036038101906103b991906129b8565b610e31565b005b6103da60048036038101906103d5919061272a565b6110f2565b005b3480156103e857600080fd5b506103f16112f0565b6040516103fe919061299d565b60405180910390f35b34801561041357600080fd5b5061041c611314565b005b610438600480360381019061043391906129b8565b611395565b005b34801561044657600080fd5b50610461600480360381019061045c919061294e565b6113b5565b005b34801561046f57600080fd5b5061048a6004803603810190610485919061272a565b611413565b6040516104979190612798565b60405180910390f35b3480156104ac57600080fd5b506104c760048036038101906104c29190612a0b565b611425565b6040516104d4919061299d565b60405180910390f35b3480156104e957600080fd5b506104f26114bc565b005b34801561050057600080fd5b506105096114d0565b005b34801561051757600080fd5b5061052061155f565b60405161052d9190612798565b60405180910390f35b34801561054257600080fd5b5061055d60048036038101906105589190612a6e565b611589565b005b34801561056b57600080fd5b5061057461159b565b6040516105819190612aaa565b60405180910390f35b34801561059657600080fd5b5061059f6115bc565b6040516105ac91906125a0565b60405180910390f35b3480156105c157600080fd5b506105ca6115cf565b6040516105d7919061264b565b60405180910390f35b3480156105ec57600080fd5b506105f5611661565b6040516106029190612ad4565b60405180910390f35b34801561061757600080fd5b50610620611667565b60405161062d9190612aaa565b60405180910390f35b34801561064257600080fd5b5061065d60048036038101906106589190612b45565b611688565b005b34801561066b57600080fd5b5061068660048036038101906106819190612bbe565b6116a6565b005b6106a2600480360381019061069d9190612d2e565b6117b1565b005b3480156106b057600080fd5b506106b9611803565b6040516106c691906127d6565b60405180910390f35b3480156106db57600080fd5b506106f660048036038101906106f1919061272a565b61181d565b604051610703919061264b565b60405180910390f35b34801561071857600080fd5b5061072161193e565b60405161072e91906127d6565b60405180910390f35b34801561074357600080fd5b5061074c611958565b60405161075991906127d6565b60405180910390f35b34801561076e57600080fd5b50610777611972565b6040516107849190612798565b60405180910390f35b34801561079957600080fd5b506107b460048036038101906107af9190612db1565b61199c565b6040516107c191906125a0565b60405180910390f35b3480156107d657600080fd5b506107df611a30565b005b3480156107ed57600080fd5b5061080860048036038101906108039190612a0b565b611a64565b005b60006301ffc9a760e01b827bffffffffffffffffffffffffffffffffffffffffffffffffffffffff1916148061086557506380ac58cd60e01b827bffffffffffffffffffffffffffffffffffffffffffffffffffffffff1916145b806108955750635b5e139f60e01b827bffffffffffffffffffffffffffffffffffffffffffffffffffffffff1916145b9050919050565b6060600280546108ab90612e20565b80601f01602080910402602001604051908101604052809291908181526020018280546108d790612e20565b80156109245780601f106108f957610100808354040283529160200191610924565b820191906000526020600020905b81548152906001019060200180831161090757829003601f168201915b5050505050905090565b610936611b11565b81600c60006101000a8154816effffffffffffffffffffffffffffff02191690836effffffffffffffffffffffffffffff16021790555080600c600f6101000a8154816effffffffffffffffffffffffffffff02191690836effffffffffffffffffffffffffffff1602179055505050565b60006109b382611b98565b6109c8576109c763cf4700e460e01b611c44565b5b6006600083815260200190815260200160002060000160009054906101000a900473ffffffffffffffffffffffffffffffffffffffff169050919050565b600d60189054906101000a900467ffffffffffffffff1681565b610a2c82826001611c4e565b5050565b600c601e9054906101000a900460ff16610a76576040517f0aea1c5d00000000000000000000000000000000000000000000000000000000815260040160405180910390fd5b600d60109054906101000a900467ffffffffffffffff1667ffffffffffffffff16421015610ad0576040517fff43f29300000000000000000000000000000000000000000000000000000000815260040160405180910390fd5b600d60189054906101000a900467ffffffffffffffff1667ffffffffffffffff16421115610b2a576040517fff43f29300000000000000000000000000000000000000000000000000000000815260040160405180910390fd5b600081610b3633611d7d565b610b409190612e80565b9050600d60009054906101000a900467ffffffffffffffff1667ffffffffffffffff16811115610b9c576040517f024fcb2100000000000000000000000000000000000000000000000000000000815260040160405180910390fd5b7f000000000000000000000000000000000000000000000000000000000000000082610bc6611dd4565b610bd09190612e80565b1115610c08576040517f7d3d824900000000000000000000000000000000000000000000000000000000815260040160405180910390fd5b610c3c8484600b5433604051602001610c219190612efc565b60405160208183030381529060405280519060200120611e1d565b610c72576040517fb08da18700000000000000000000000000000000000000000000000000000000815260040160405180910390fd5b600c600f9054906101000a90046effffffffffffffffffffffffffffff166effffffffffffffffffffffffffffff1682610cac9190612f17565b3414610ce4576040517fcd1c886700000000000000000000000000000000000000000000000000000000815260040160405180910390fd5b610cee3383611e75565b50505050565b610cfc611b11565b8067ffffffffffffffff168267ffffffffffffffff161115610d4a576040517f65a527d800000000000000000000000000000000000000000000000000000000815260040160405180910390fd5b60008267ffffffffffffffff1603610d8e576040517f65a527d800000000000000000000000000000000000000000000000000000000815260040160405180910390fd5b81600d60106101000a81548167ffffffffffffffff021916908367ffffffffffffffff16021790555080600d60186101000a81548167ffffffffffffffff021916908367ffffffffffffffff1602179055505050565b6000610dee611ffb565b600154600054030390507fffffffffffffffffffffffffffffffffffffffffffffffffffffffffffffffff610e21612000565b14610e2e57600854810190505b90565b6000610e3c82612028565b905073ffffffffffffffffffffffffffffffffffffffff8473ffffffffffffffffffffffffffffffffffffffff161693508373ffffffffffffffffffffffffffffffffffffffff168173ffffffffffffffffffffffffffffffffffffffff1614610eb157610eb063a114810060e01b611c44565b5b600080610ebd84612141565b91509150610ed38187610ece612168565b612170565b610efe57610ee886610ee3612168565b61199c565b610efd57610efc6359c896be60e01b611c44565b5b5b610f0b86868660016121b4565b8015610f1657600082555b600560008773ffffffffffffffffffffffffffffffffffffffff1673ffffffffffffffffffffffffffffffffffffffff168152602001908152602001600020600081546001900391905081905550600560008673ffffffffffffffffffffffffffffffffffffffff1673ffffffffffffffffffffffffffffffffffffffff1681526020019081526020016000206000815460010191905081905550610fe485610fc08888876121ba565b7c0200000000000000000000000000000000000000000000000000000000176121e2565b600460008681526020019081526020016000208190555060007c020000000000000000000000000000000000000000000000000000000084160361106a5760006001850190506000600460008381526020019081526020016000205403611068576000548114611067578360046000838152602001908152602001600020819055505b5b505b600073ffffffffffffffffffffffffffffffffffffffff8673ffffffffffffffffffffffffffffffffffffffff161690508481887fddf252ad1be2c89b69c2b068fc378daa952ba7f163c4a11628f55a4df523b3ef600080a4600081036110dc576110db63ea553b3460e01b611c44565b5b6110e9878787600161220d565b50505050505050565b600c601e9054906101000a900460ff16611138576040517f0aea1c5d00000000000000000000000000000000000000000000000000000000815260040160405180910390fd5b600d60189054906101000a900467ffffffffffffffff1667ffffffffffffffff16421015611192576040517f10d3e4c900000000000000000000000000000000000000000000000000000000815260040160405180910390fd5b60008161119e33611d7d565b6111a89190612e80565b9050600d60089054906101000a900467ffffffffffffffff1667ffffffffffffffff16811115611204576040517f024fcb2100000000000000000000000000000000000000000000000000000000815260040160405180910390fd5b7f00000000000000000000000000000000000000000000000000000000000000008261122e611dd4565b6112389190612e80565b1115611270576040517f7d3d824900000000000000000000000000000000000000000000000000000000815260040160405180910390fd5b600c60009054906101000a90046effffffffffffffffffffffffffffff166effffffffffffffffffffffffffffff16826112aa9190612f17565b34146112e2576040517fcd1c886700000000000000000000000000000000000000000000000000000000815260040160405180910390fd5b6112ec3383611e75565b5050565b7f000000000000000000000000000000000000000000000000000000000000000081565b61131c611b11565b60003373ffffffffffffffffffffffffffffffffffffffff164760405161134290612f8a565b60006040518083038185875af1925050503d806000811461137f576040519150601f19603f3d011682016040523d82523d6000602084013e611384565b606091505b505090508061139257600080fd5b50565b6113b0838383604051806020016040528060008152506117b1565b505050565b6113bd611b11565b81600d60006101000a81548167ffffffffffffffff021916908367ffffffffffffffff16021790555080600d60086101000a81548167ffffffffffffffff021916908367ffffffffffffffff1602179055505050565b600061141e82612028565b9050919050565b60008073ffffffffffffffffffffffffffffffffffffffff168273ffffffffffffffffffffffffffffffffffffffff160361146b5761146a638f4eb60460e01b611c44565b5b67ffffffffffffffff600560008473ffffffffffffffffffffffffffffffffffffffff1673ffffffffffffffffffffffffffffffffffffffff16815260200190815260200160002054169050919050565b6114c4611b11565b6114ce6000612213565b565b60006114da612244565b90508073ffffffffffffffffffffffffffffffffffffffff166114fb611972565b73ffffffffffffffffffffffffffffffffffffffff161461155357806040517f118cdaa700000000000000000000000000000000000000000000000000000000815260040161154a9190612798565b60405180910390fd5b61155c81612213565b50565b6000600960009054906101000a900473ffffffffffffffffffffffffffffffffffffffff16905090565b611591611b11565b80600b8190555050565b600c600f9054906101000a90046effffffffffffffffffffffffffffff1681565b600c601e9054906101000a900460ff1681565b6060600380546115de90612e20565b80601f016020809104026020016040519081016040528092919081815260200182805461160a90612e20565b80156116575780601f1061162c57610100808354040283529160200191611657565b820191906000526020600020905b81548152906001019060200180831161163a57829003601f168201915b5050505050905090565b600b5481565b600c60009054906101000a90046effffffffffffffffffffffffffffff1681565b611690611b11565b8181600e91826116a1929190613156565b505050565b80600760006116b3612168565b73ffffffffffffffffffffffffffffffffffffffff1673ffffffffffffffffffffffffffffffffffffffff16815260200190815260200160002060008473ffffffffffffffffffffffffffffffffffffffff1673ffffffffffffffffffffffffffffffffffffffff16815260200190815260200160002060006101000a81548160ff0219169083151502179055508173ffffffffffffffffffffffffffffffffffffffff16611760612168565b73ffffffffffffffffffffffffffffffffffffffff167f17307eab39ab6107e8899845ad3d59bd9653f200f220920489ca2b5937696c31836040516117a591906125a0565b60405180910390a35050565b6117bc848484610e31565b60008373ffffffffffffffffffffffffffffffffffffffff163b146117fd576117e78484848461224c565b6117fc576117fb63d1a57ed660e01b611c44565b5b5b50505050565b600d60009054906101000a900467ffffffffffffffff1681565b606061182882611b98565b61185e576040517fceea21b600000000000000000000000000000000000000000000000000000000815260040160405180910390fd5b6000600e805461186d90612e20565b80601f016020809104026020016040519081016040528092919081815260200182805461189990612e20565b80156118e65780601f106118bb576101008083540402835291602001916118e6565b820191906000526020600020905b8154815290600101906020018083116118c957829003601f168201915b50505050509050600081510361190b5760405180602001604052806000815250611936565b806119158461237b565b604051602001611926929190613262565b6040516020818303038152906040525b915050919050565b600d60089054906101000a900467ffffffffffffffff1681565b600d60109054906101000a900467ffffffffffffffff1681565b6000600a60009054906101000a900473ffffffffffffffffffffffffffffffffffffffff16905090565b6000600760008473ffffffffffffffffffffffffffffffffffffffff1673ffffffffffffffffffffffffffffffffffffffff16815260200190815260200160002060008373ffffffffffffffffffffffffffffffffffffffff1673ffffffffffffffffffffffffffffffffffffffff16815260200190815260200160002060009054906101000a900460ff16905092915050565b611a38611b11565b600c601e9054906101000a900460ff1615600c601e6101000a81548160ff021916908315150217905550565b611a6c611b11565b80600a60006101000a81548173ffffffffffffffffffffffffffffffffffffffff021916908373ffffffffffffffffffffffffffffffffffffffff1602179055508073ffffffffffffffffffffffffffffffffffffffff16611acc61155f565b73ffffffffffffffffffffffffffffffffffffffff167f38d16b8cac22d99fc7c124b9cd0de2d3fa1faef420bfe791d8c362d765e2270060405160405180910390a350565b611b19612244565b73ffffffffffffffffffffffffffffffffffffffff16611b3761155f565b73ffffffffffffffffffffffffffffffffffffffff1614611b9657611b5a612244565b6040517f118cdaa7000000000000000000000000000000000000000000000000000000008152600401611b8d9190612798565b60405180910390fd5b565b600081611ba3611ffb565b11611c3e57611bb0612000565b821115611bda57611bd360046000848152602001908152602001600020546123cc565b9050611c3f565b600054821015611c3d5760005b6000600460008581526020019081526020016000205491508103611c165782611c0f90613286565b9250611be7565b60007c01000000000000000000000000000000000000000000000000000000008216149150505b5b5b919050565b8060005260046000fd5b6000611c5983611413565b9050818015611c9b57508073ffffffffffffffffffffffffffffffffffffffff16611c82612168565b73ffffffffffffffffffffffffffffffffffffffff1614155b15611cc757611cb181611cac612168565b61199c565b611cc657611cc563cfb3b94260e01b611c44565b5b5b836006600085815260200190815260200160002060000160006101000a81548173ffffffffffffffffffffffffffffffffffffffff021916908373ffffffffffffffffffffffffffffffffffffffff160217905550828473ffffffffffffffffffffffffffffffffffffffff168273ffffffffffffffffffffffffffffffffffffffff167f8c5be1e5ebec7d5bd14f71427d1e84f3dd0314c0f7b2291e5b200ac8c7c3b92560405160405180910390a450505050565b600067ffffffffffffffff6040600560008573ffffffffffffffffffffffffffffffffffffffff1673ffffffffffffffffffffffffffffffffffffffff16815260200190815260200160002054901c169050919050565b6000611dde611ffb565b6000540390507fffffffffffffffffffffffffffffffffffffffffffffffffffffffffffffffff611e0d612000565b14611e1a57600854810190505b90565b60008315611e68578360051b8501855b600115611e65578035841160051b8481528135602082185260406000209450602082019150828210611e5f5750611e65565b50611e2d565b50505b8282149050949350505050565b60008054905060008203611e9457611e9363b562e8dd60e01b611c44565b5b611ea160008483856121b4565b611ec183611eb260008660006121ba565b611ebb8561240d565b176121e2565b6004600083815260200190815260200160002081905550600160406001901b178202600560008573ffffffffffffffffffffffffffffffffffffffff1673ffffffffffffffffffffffffffffffffffffffff16815260200190815260200160002060008282540192505081905550600073ffffffffffffffffffffffffffffffffffffffff8473ffffffffffffffffffffffffffffffffffffffff1616905060008103611f7957611f78632e07630060e01b611c44565b5b600083830190506000839050611f8d612000565b600183031115611fa857611fa76381647e3a60e01b611c44565b5b5b808360007fddf252ad1be2c89b69c2b068fc378daa952ba7f163c4a11628f55a4df523b3ef600080a4818160010191508103611fa95781600081905550505050611ff6600084838561220d565b505050565b600090565b60007fffffffffffffffffffffffffffffffffffffffffffffffffffffffffffffffff905090565b600081612033611ffb565b1161212b5760046000838152602001908152602001600020549050612056612000565b82111561207b57612066816123cc565b61213c5761207a63df2d9b4260e01b611c44565b5b6000810361210257600054821061209d5761209c63df2d9b4260e01b611c44565b5b5b600460008360019003935083815260200190815260200160002054905060008103156120fd5760007c01000000000000000000000000000000000000000000000000000000008216031561213c576120fc63df2d9b4260e01b611c44565b5b61209e565b60007c01000000000000000000000000000000000000000000000000000000008216031561213c575b61213b63df2d9b4260e01b611c44565b5b919050565b60008060006006600085815260200190815260200160002090508092508254915050915091565b600033905090565b600073ffffffffffffffffffffffffffffffffffffffff8316925073ffffffffffffffffffffffffffffffffffffffff821691508382148383141790509392505050565b50505050565b60008060e883901c905060e86121d186868461241d565b62ffffff16901b9150509392505050565b600073ffffffffffffffffffffffffffffffffffffffff83169250814260a01b178317905092915050565b50505050565b600a60006101000a81549073ffffffffffffffffffffffffffffffffffffffff021916905561224181612426565b50565b600033905090565b60008373ffffffffffffffffffffffffffffffffffffffff1663150b7a02612272612168565b8786866040518563ffffffff1660e01b81526004016122949493929190613304565b6020604051808303816000875af19250505080156122d057506040513d601f19601f820116820180604052508101906122cd9190613365565b60015b612328573d8060008114612300576040519150601f19603f3d011682016040523d82523d6000602084013e612305565b606091505b5060008151036123205761231f63d1a57ed660e01b611c44565b5b805181602001fd5b63150b7a0260e01b7bffffffffffffffffffffffffffffffffffffffffffffffffffffffff1916817bffffffffffffffffffffffffffffffffffffffffffffffffffffffff191614915050949350505050565b60606080604051019050602081016040526000815280600019835b6001156123b7578184019350600a81066030018453600a8104905080612396575b50828203602084039350808452505050919050565b60007c0100000000000000000000000000000000000000000000000000000000821673ffffffffffffffffffffffffffffffffffffffff8316119050919050565b60006001821460e11b9050919050565b60009392505050565b6000600960009054906101000a900473ffffffffffffffffffffffffffffffffffffffff16905081600960006101000a81548173ffffffffffffffffffffffffffffffffffffffff021916908373ffffffffffffffffffffffffffffffffffffffff1602179055508173ffffffffffffffffffffffffffffffffffffffff168173ffffffffffffffffffffffffffffffffffffffff167f8be0079c531659141344cd1fd0a4f28419497f9722a3daafe3b4186f6b6457e060405160405180910390a35050565b6000604051905090565b600080fd5b600080fd5b60007fffffffff0000000000000000000000000000000000000000000000000000000082169050919050565b61253581612500565b811461254057600080fd5b50565b6000813590506125528161252c565b92915050565b60006020828403121561256e5761256d6124f6565b5b600061257c84828501612543565b91505092915050565b60008115159050919050565b61259a81612585565b82525050565b60006020820190506125b56000830184612591565b92915050565b600081519050919050565b600082825260208201905092915050565b60005b838110156125f55780820151818401526020810190506125da565b60008484015250505050565b6000601f19601f8301169050919050565b600061261d826125bb565b61262781856125c6565b93506126378185602086016125d7565b61264081612601565b840191505092915050565b600060208201905081810360008301526126658184612612565b905092915050565b60006effffffffffffffffffffffffffffff82169050919050565b6126918161266d565b811461269c57600080fd5b50565b6000813590506126ae81612688565b92915050565b600080604083850312156126cb576126ca6124f6565b5b60006126d98582860161269f565b92505060206126ea8582860161269f565b9150509250929050565b6000819050919050565b612707816126f4565b811461271257600080fd5b50565b600081359050612724816126fe565b92915050565b6000602082840312156127405761273f6124f6565b5b600061274e84828501612715565b91505092915050565b600073ffffffffffffffffffffffffffffffffffffffff82169050919050565b600061278282612757565b9050919050565b61279281612777565b82525050565b60006020820190506127ad6000830184612789565b92915050565b600067ffffffffffffffff82169050919050565b6127d0816127b3565b82525050565b60006020820190506127eb60008301846127c7565b92915050565b6127fa81612777565b811461280557600080fd5b50565b600081359050612817816127f1565b92915050565b60008060408385031215612834576128336124f6565b5b600061284285828601612808565b925050602061285385828601612715565b9150509250929050565b600080fd5b600080fd5b600080fd5b60008083601f8401126128825761288161285d565b5b8235905067ffffffffffffffff81111561289f5761289e612862565b5b6020830191508360208202830111156128bb576128ba612867565b5b9250929050565b6000806000604084860312156128db576128da6124f6565b5b600084013567ffffffffffffffff8111156128f9576128f86124fb565b5b6129058682870161286c565b9350935050602061291886828701612715565b9150509250925092565b61292b816127b3565b811461293657600080fd5b50565b60008135905061294881612922565b92915050565b60008060408385031215612965576129646124f6565b5b600061297385828601612939565b925050602061298485828601612939565b9150509250929050565b612997816126f4565b82525050565b60006020820190506129b2600083018461298e565b92915050565b6000806000606084860312156129d1576129d06124f6565b5b60006129df86828701612808565b93505060206129f086828701612808565b9250506040612a0186828701612715565b9150509250925092565b600060208284031215612a2157612a206124f6565b5b6000612a2f84828501612808565b91505092915050565b6000819050919050565b612a4b81612a38565b8114612a5657600080fd5b50565b600081359050612a6881612a42565b92915050565b600060208284031215612a8457612a836124f6565b5b6000612a9284828501612a59565b91505092915050565b612aa48161266d565b82525050565b6000602082019050612abf6000830184612a9b565b92915050565b612ace81612a38565b82525050565b6000602082019050612ae96000830184612ac5565b92915050565b60008083601f840112612b0557612b0461285d565b5b8235905067ffffffffffffffff811115612b2257612b21612862565b5b602083019150836001820283011115612b3e57612b3d612867565b5b9250929050565b60008060208385031215612b5c57612b5b6124f6565b5b600083013567ffffffffffffffff811115612b7a57612b796124fb565b5b612b8685828601612aef565b92509250509250929050565b612b9b81612585565b8114612ba657600080fd5b50565b600081359050612bb881612b92565b92915050565b60008060408385031215612bd557612bd46124f6565b5b6000612be385828601612808565b9250506020612bf485828601612ba9565b9150509250929050565b600080fd5b7f4e487b7100000000000000000000000000000000000000000000000000000000600052604160045260246000fd5b612c3b82612601565b810181811067ffffffffffffffff82111715612c5a57612c59612c03565b5b80604052505050565b6000612c6d6124ec565b9050612c798282612c32565b919050565b600067ffffffffffffffff821115612c9957612c98612c03565b5b612ca282612601565b9050602081019050919050565b82818337600083830152505050565b6000612cd1612ccc84612c7e565b612c63565b905082815260208101848484011115612ced57612cec612bfe565b5b612cf8848285612caf565b509392505050565b600082601f830112612d1557612d1461285d565b5b8135612d25848260208601612cbe565b91505092915050565b60008060008060808587031215612d4857612d476124f6565b5b6000612d5687828801612808565b9450506020612d6787828801612808565b9350506040612d7887828801612715565b925050606085013567ffffffffffffffff811115612d9957612d986124fb565b5b612da587828801612d00565b91505092959194509250565b60008060408385031215612dc857612dc76124f6565b5b6000612dd685828601612808565b9250506020612de785828601612808565b9150509250929050565b7f4e487b7100000000000000000000000000000000000000000000000000000000600052602260045260246000fd5b60006002820490506001821680612e3857607f821691505b602082108103612e4b57612e4a612df1565b5b50919050565b7f4e487b7100000000000000000000000000000000000000000000000000000000600052601160045260246000fd5b6000612e8b826126f4565b9150612e96836126f4565b9250828201905080821115612eae57612ead612e51565b5b92915050565b60008160601b9050919050565b6000612ecc82612eb4565b9050919050565b6000612ede82612ec1565b9050919050565b612ef6612ef182612777565b612ed3565b82525050565b6000612f088284612ee5565b60148201915081905092915050565b6000612f22826126f4565b9150612f2d836126f4565b9250828202612f3b816126f4565b91508282048414831517612f5257612f51612e51565b5b5092915050565b600081905092915050565b50565b6000612f74600083612f59565b9150612f7f82612f64565b600082019050919050565b6000612f9582612f67565b9150819050919050565b600082905092915050565b60008190508160005260206000209050919050565b60006020601f8301049050919050565b600082821b905092915050565b60006008830261300c7fffffffffffffffffffffffffffffffffffffffffffffffffffffffffffffffff82612fcf565b6130168683612fcf565b95508019841693508086168417925050509392505050565b6000819050919050565b600061305361304e613049846126f4565b61302e565b6126f4565b9050919050565b6000819050919050565b61306d83613038565b6130816130798261305a565b848454612fdc565b825550505050565b600090565b613096613089565b6130a1818484613064565b505050565b5b818110156130c5576130ba60008261308e565b6001810190506130a7565b5050565b601f82111561310a576130db81612faa565b6130e484612fbf565b810160208510156130f3578190505b6131076130ff85612fbf565b8301826130a6565b50505b505050565b600082821c905092915050565b600061312d6000198460080261310f565b1980831691505092915050565b6000613146838361311c565b9150826002028217905092915050565b6131608383612f9f565b67ffffffffffffffff81111561317957613178612c03565b5b6131838254612e20565b61318e8282856130c9565b6000601f8311600181146131bd57600084156131ab578287013590505b6131b5858261313a565b86555061321d565b601f1984166131cb86612faa565b60005b828110156131f3578489013582556001820191506020850194506020810190506131ce565b86831015613210578489013561320c601f89168261311c565b8355505b6001600288020188555050505b50505050505050565b600081905092915050565b600061323c826125bb565b6132468185613226565b93506132568185602086016125d7565b80840191505092915050565b600061326e8285613231565b915061327a8284613231565b91508190509392505050565b6000613291826126f4565b9150600082036132a4576132a3612e51565b5b600182039050919050565b600081519050919050565b600082825260208201905092915050565b60006132d6826132af565b6132e081856132ba565b93506132f08185602086016125d7565b6132f981612601565b840191505092915050565b60006080820190506133196000830187612789565b6133266020830186612789565b613333604083018561298e565b818103606083015261334581846132cb565b905095945050505050565b60008151905061335f8161252c565b92915050565b60006020828403121561337b5761337a6124f6565b5b600061338984828501613350565b9150509291505056fea2646970667358221220552bde3df206d40e9b8b2a67551060cd49f9b4cc759af2c4130f4b3c0bac112a64736f6c63430008170033",
  "linkReferences": {},
  "deployedLinkReferences": {}
}