{
  "_format": "hh-sol-artifact-1",
  "contractName": "BuyMeACoffee",
  "sourceName": "src/BuyMeACoffee.sol",
  "abi": [
    {
      "inputs": [],
      "stateMutability": "nonpayable",
      "type": "constructor"
    },
    {
      "inputs": [],
      "name": "InsufficientFunds",
      "type": "error"
    },
    {
      "inputs": [
        {
          "internalType": "string",
          "name": "message",
          "type": "string"
        }
      ],
      "name": "InvalidArguments",
      "type": "error"
    },
    {
      "inputs": [],
      "name": "OnlyOwner",
      "type": "error"
    },
    {
      "anonymous": false,
      "inputs": [
        {
          "indexed": true,
          "internalType": "address",
          "name": "buyer",
          "type": "address"
        },
        {
          "indexed": false,
          "internalType": "uint256",
          "name": "price",
          "type": "uint256"
        }
      ],
      "name": "BuyMeACoffeeEvent",
      "type": "event"
    },
    {
      "anonymous": false,
      "inputs": [
        {
          "indexed": true,
          "internalType": "address",
          "name": "userAddress",
          "type": "address"
        },
        {
          "indexed": false,
          "internalType": "uint256",
          "name": "time",
          "type": "uint256"
        },
        {
          "indexed": false,
          "internalType": "uint256",
          "name": "numCoffees",
          "type": "uint256"
        },
        {
          "indexed": false,
          "internalType": "string",
          "name": "userName",
          "type": "string"
        },
        {
          "indexed": false,
          "internalType": "string",
          "name": "twitterHandle",
          "type": "string"
        },
        {
          "indexed": false,
          "internalType": "string",
          "name": "message",
          "type": "string"
        }
      ],
      "name": "NewMemo",
      "type": "event"
    },
    {
      "inputs": [
        {
          "internalType": "uint256",
          "name": "numCoffees",
          "type": "uint256"
        },
        {
          "internalType": "string",
          "name": "userName",
          "type": "string"
        },
        {
          "internalType": "string",
          "name": "twitterHandle",
          "type": "string"
        },
        {
          "internalType": "string",
          "name": "message",
          "type": "string"
        }
      ],
      "name": "buyCoffee",
      "outputs": [],
      "stateMutability": "payable",
      "type": "function"
    },
    {
      "inputs": [
        {
          "internalType": "uint256",
          "name": "index",
          "type": "uint256"
        },
        {
          "internalType": "uint256",
          "name": "size",
          "type": "uint256"
        }
      ],
      "name": "getMemos",
      "outputs": [
        {
          "components": [
            {
              "internalType": "uint256",
              "name": "numCoffees",
              "type": "uint256"
            },
            {
              "internalType": "string",
              "name": "userName",
              "type": "string"
            },
            {
              "internalType": "string",
              "name": "twitterHandle",
              "type": "string"
            },
            {
              "internalType": "string",
              "name": "message",
              "type": "string"
            },
            {
              "internalType": "uint256",
              "name": "time",
              "type": "uint256"
            },
            {
              "internalType": "address",
              "name": "userAddress",
              "type": "address"
            }
          ],
          "internalType": "struct Memo[]",
          "name": "",
          "type": "tuple[]"
        }
      ],
      "stateMutability": "view",
      "type": "function"
    },
    {
      "inputs": [
        {
          "internalType": "uint256",
          "name": "",
          "type": "uint256"
        }
      ],
      "name": "memos",
      "outputs": [
        {
          "internalType": "uint256",
          "name": "numCoffees",
          "type": "uint256"
        },
        {
          "internalType": "string",
          "name": "userName",
          "type": "string"
        },
        {
          "internalType": "string",
          "name": "twitterHandle",
          "type": "string"
        },
        {
          "internalType": "string",
          "name": "message",
          "type": "string"
        },
        {
          "internalType": "uint256",
          "name": "time",
          "type": "uint256"
        },
        {
          "internalType": "address",
          "name": "userAddress",
          "type": "address"
        }
      ],
      "stateMutability": "view",
      "type": "function"
    },
    {
      "inputs": [
        {
          "internalType": "uint256",
          "name": "index",
          "type": "uint256"
        },
        {
          "internalType": "string",
          "name": "message",
          "type": "string"
        }
      ],
      "name": "modifyMemoMessage",
      "outputs": [],
      "stateMutability": "nonpayable",
      "type": "function"
    },
    {
      "inputs": [],
      "name": "owner",
      "outputs": [
        {
          "internalType": "address payable",
          "name": "",
          "type": "address"
        }
      ],
      "stateMutability": "view",
      "type": "function"
    },
    {
      "inputs": [],
      "name": "price",
      "outputs": [
        {
          "internalType": "uint256",
          "name": "",
          "type": "uint256"
        }
      ],
      "stateMutability": "view",
      "type": "function"
    },
    {
      "inputs": [
        {
          "internalType": "uint256",
          "name": "index",
          "type": "uint256"
        }
      ],
      "name": "removeMemo",
      "outputs": [],
      "stateMutability": "nonpayable",
      "type": "function"
    },
    {
      "inputs": [],
      "name": "withdrawTips",
      "outputs": [],
      "stateMutability": "nonpayable",
      "type": "function"
    },
    {
      "stateMutability": "payable",
      "type": "receive"
    }
  ],
  "bytecode": "0x608060405234801561001057600080fd5b50336000806101000a81548173ffffffffffffffffffffffffffffffffffffffff021916908373ffffffffffffffffffffffffffffffffffffffff160217905550655af3107a4000600181905550612bba8061006d6000396000f3fe60806040526004361061007f5760003560e01c80638da5cb5b1161004e5780638da5cb5b14610110578063a035b1fe1461013b578063d75b452014610166578063e8dfdf04146101a357610086565b8063304f2e211461008b5780633aaa74b2146100b4578063406b2b46146100cb5780635456d394146100f457610086565b3661008657005b600080fd5b34801561009757600080fd5b506100b260048036038101906100ad9190611c2b565b6101e5565b005b3480156100c057600080fd5b506100c9610a16565b005b3480156100d757600080fd5b506100f260048036038101906100ed9190611d9e565b610ba5565b005b61010e60048036038101906101099190611e5a565b610f40565b005b34801561011c57600080fd5b506101256112cd565b6040516101329190611f64565b60405180910390f35b34801561014757600080fd5b506101506112f1565b60405161015d9190611f8e565b60405180910390f35b34801561017257600080fd5b5061018d60048036038101906101889190611fa9565b6112f7565b60405161019a91906121f1565b60405180910390f35b3480156101af57600080fd5b506101ca60048036038101906101c59190611c2b565b611934565b6040516101dc9695949392919061226c565b60405180910390f35b600280549050811061022c576040517f15d8e70a0000000000000000000000000000000000000000000000000000000081526004016102239061232e565b60405180910390fd5b6000600282815481106102425761024161234e565b5b90600052602060002090600602016040518060c001604052908160008201548152602001600182018054610275906123ac565b80601f01602080910402602001604051908101604052809291908181526020018280546102a1906123ac565b80156102ee5780601f106102c3576101008083540402835291602001916102ee565b820191906000526020600020905b8154815290600101906020018083116102d157829003601f168201915b50505050508152602001600282018054610307906123ac565b80601f0160208091040260200160405190810160405280929190818152602001828054610333906123ac565b80156103805780601f1061035557610100808354040283529160200191610380565b820191906000526020600020905b81548152906001019060200180831161036357829003601f168201915b50505050508152602001600382018054610399906123ac565b80601f01602080910402602001604051908101604052809291908181526020018280546103c5906123ac565b80156104125780601f106103e757610100808354040283529160200191610412565b820191906000526020600020905b8154815290600101906020018083116103f557829003601f168201915b50505050508152602001600482015481526020016005820160009054906101000a900473ffffffffffffffffffffffffffffffffffffffff1673ffffffffffffffffffffffffffffffffffffffff1673ffffffffffffffffffffffffffffffffffffffff168152505090503373ffffffffffffffffffffffffffffffffffffffff168160a0015173ffffffffffffffffffffffffffffffffffffffff16141580610508575060008054906101000a900473ffffffffffffffffffffffffffffffffffffffff1673ffffffffffffffffffffffffffffffffffffffff163373ffffffffffffffffffffffffffffffffffffffff1614155b15610548576040517f15d8e70a00000000000000000000000000000000000000000000000000000000815260040161053f90612429565b60405180910390fd5b60006002838154811061055e5761055d61234e565b5b90600052602060002090600602016040518060c001604052908160008201548152602001600182018054610591906123ac565b80601f01602080910402602001604051908101604052809291908181526020018280546105bd906123ac565b801561060a5780601f106105df5761010080835404028352916020019161060a565b820191906000526020600020905b8154815290600101906020018083116105ed57829003601f168201915b50505050508152602001600282018054610623906123ac565b80601f016020809104026020016040519081016040528092919081815260200182805461064f906123ac565b801561069c5780601f106106715761010080835404028352916020019161069c565b820191906000526020600020905b81548152906001019060200180831161067f57829003601f168201915b505050505081526020016003820180546106b5906123ac565b80601f01602080910402602001604051908101604052809291908181526020018280546106e1906123ac565b801561072e5780601f106107035761010080835404028352916020019161072e565b820191906000526020600020905b81548152906001019060200180831161071157829003601f168201915b50505050508152602001600482015481526020016005820160009054906101000a900473ffffffffffffffffffffffffffffffffffffffff1673ffffffffffffffffffffffffffffffffffffffff1673ffffffffffffffffffffffffffffffffffffffff16815250509050600260016002805490506107ad9190612478565b815481106107be576107bd61234e565b5b9060005260206000209060060201600284815481106107e0576107df61234e565b5b9060005260206000209060060201600082015481600001556001820181600101908161080c919061266e565b5060028201816002019081610821919061266e565b5060038201816003019081610836919061266e565b50600482015481600401556005820160009054906101000a900473ffffffffffffffffffffffffffffffffffffffff168160050160006101000a81548173ffffffffffffffffffffffffffffffffffffffff021916908373ffffffffffffffffffffffffffffffffffffffff16021790555090505080600260016002805490506108c09190612478565b815481106108d1576108d061234e565b5b90600052602060002090600602016000820151816000015560208201518160010190816108fe9190612756565b5060408201518160020190816109149190612756565b50606082015181600301908161092a9190612756565b506080820151816004015560a08201518160050160006101000a81548173ffffffffffffffffffffffffffffffffffffffff021916908373ffffffffffffffffffffffffffffffffffffffff160217905550905050600280548061099157610990612828565b5b60019003818190600052602060002090600602016000808201600090556001820160006109be9190611b38565b6002820160006109ce9190611b38565b6003820160006109de9190611b38565b60048201600090556005820160006101000a81549073ffffffffffffffffffffffffffffffffffffffff021916905550509055505050565b60008054906101000a900473ffffffffffffffffffffffffffffffffffffffff1673ffffffffffffffffffffffffffffffffffffffff163373ffffffffffffffffffffffffffffffffffffffff1614610a9b576040517f5fc483c500000000000000000000000000000000000000000000000000000000815260040160405180910390fd5b60004703610ad5576040517f356680b700000000000000000000000000000000000000000000000000000000815260040160405180910390fd5b60008060009054906101000a900473ffffffffffffffffffffffffffffffffffffffff1673ffffffffffffffffffffffffffffffffffffffff1647604051610b1c90612888565b60006040518083038185875af1925050503d8060008114610b59576040519150601f19603f3d011682016040523d82523d6000602084013e610b5e565b606091505b5050905080610ba2576040517f08c379a0000000000000000000000000000000000000000000000000000000008152600401610b99906128e9565b60405180910390fd5b50565b6002805490508210610bec576040517f15d8e70a000000000000000000000000000000000000000000000000000000008152600401610be39061232e565b60405180910390fd5b600060028381548110610c0257610c0161234e565b5b90600052602060002090600602016040518060c001604052908160008201548152602001600182018054610c35906123ac565b80601f0160208091040260200160405190810160405280929190818152602001828054610c61906123ac565b8015610cae5780601f10610c8357610100808354040283529160200191610cae565b820191906000526020600020905b815481529060010190602001808311610c9157829003601f168201915b50505050508152602001600282018054610cc7906123ac565b80601f0160208091040260200160405190810160405280929190818152602001828054610cf3906123ac565b8015610d405780601f10610d1557610100808354040283529160200191610d40565b820191906000526020600020905b815481529060010190602001808311610d2357829003601f168201915b50505050508152602001600382018054610d59906123ac565b80601f0160208091040260200160405190810160405280929190818152602001828054610d85906123ac565b8015610dd25780601f10610da757610100808354040283529160200191610dd2565b820191906000526020600020905b815481529060010190602001808311610db557829003601f168201915b50505050508152602001600482015481526020016005820160009054906101000a900473ffffffffffffffffffffffffffffffffffffffff1673ffffffffffffffffffffffffffffffffffffffff1673ffffffffffffffffffffffffffffffffffffffff168152505090503373ffffffffffffffffffffffffffffffffffffffff168160a0015173ffffffffffffffffffffffffffffffffffffffff16141580610ec8575060008054906101000a900473ffffffffffffffffffffffffffffffffffffffff1673ffffffffffffffffffffffffffffffffffffffff163373ffffffffffffffffffffffffffffffffffffffff1614155b15610f08576040517f15d8e70a000000000000000000000000000000000000000000000000000000008152600401610eff90612429565b60405180910390fd5b8160028481548110610f1d57610f1c61234e565b5b90600052602060002090600602016003019081610f3a9190612756565b50505050565b86600154610f4e9190612909565b341015610f87576040517f356680b700000000000000000000000000000000000000000000000000000000815260040160405180910390fd5b3373ffffffffffffffffffffffffffffffffffffffff167f6c786e8cbaf5f056129cce184bf072f2a16cb9af797b5d5dc57f280897eddaa134604051610fcd9190611f8e565b60405180910390a2600086869050148015610feb5750600082829050145b1561102b576040517f15d8e70a00000000000000000000000000000000000000000000000000000000815260040161102290612997565b60405180910390fd5b604b8686905011806110405750604b84849050115b8061104f575061040082829050115b1561108f576040517f15d8e70a00000000000000000000000000000000000000000000000000000000815260040161108690612a29565b60405180910390fd5b60026040518060c0016040528089815260200188888080601f016020809104026020016040519081016040528093929190818152602001838380828437600081840152601f19601f82011690508083019250505050505050815260200186868080601f016020809104026020016040519081016040528093929190818152602001838380828437600081840152601f19601f82011690508083019250505050505050815260200184848080601f016020809104026020016040519081016040528093929190818152602001838380828437600081840152601f19601f8201169050808301925050505050505081526020014281526020013373ffffffffffffffffffffffffffffffffffffffff1681525090806001815401808255809150506001900390600052602060002090600602016000909190919091506000820151816000015560208201518160010190816111e89190612756565b5060408201518160020190816111fe9190612756565b5060608201518160030190816112149190612756565b506080820151816004015560a08201518160050160006101000a81548173ffffffffffffffffffffffffffffffffffffffff021916908373ffffffffffffffffffffffffffffffffffffffff16021790555050503373ffffffffffffffffffffffffffffffffffffffff167f4c312a9c4e169a294b601cb57ba02fe2fa8a84c417a019692e201db957ec644f42898989898989896040516112bc989796959493929190612a76565b60405180910390a250505050505050565b60008054906101000a900473ffffffffffffffffffffffffffffffffffffffff1681565b60015481565b6060600060028054905003611585576002805480602002602001604051908101604052809291908181526020016000905b8282101561157a57838290600052602060002090600602016040518060c001604052908160008201548152602001600182018054611365906123ac565b80601f0160208091040260200160405190810160405280929190818152602001828054611391906123ac565b80156113de5780601f106113b3576101008083540402835291602001916113de565b820191906000526020600020905b8154815290600101906020018083116113c157829003601f168201915b505050505081526020016002820180546113f7906123ac565b80601f0160208091040260200160405190810160405280929190818152602001828054611423906123ac565b80156114705780601f1061144557610100808354040283529160200191611470565b820191906000526020600020905b81548152906001019060200180831161145357829003601f168201915b50505050508152602001600382018054611489906123ac565b80601f01602080910402602001604051908101604052809291908181526020018280546114b5906123ac565b80156115025780601f106114d757610100808354040283529160200191611502565b820191906000526020600020905b8154815290600101906020018083116114e557829003601f168201915b50505050508152602001600482015481526020016005820160009054906101000a900473ffffffffffffffffffffffffffffffffffffffff1673ffffffffffffffffffffffffffffffffffffffff1673ffffffffffffffffffffffffffffffffffffffff168152505081526020019060010190611328565b50505050905061192e565b60028054905083106115cc576040517f15d8e70a0000000000000000000000000000000000000000000000000000000081526004016115c39061232e565b60405180910390fd5b6019821115611610576040517f15d8e70a00000000000000000000000000000000000000000000000000000000815260040161160790612b30565b60405180910390fd5b600082905060028054905083856116279190612b50565b1115611641578360028054905061163e9190612478565b90505b60008167ffffffffffffffff81111561165d5761165c611c73565b5b60405190808252806020026020018201604052801561169657816020015b611683611b78565b81526020019060019003908161167b5790505b50905060005b8281101561192757600281876116b29190612b50565b815481106116c3576116c261234e565b5b90600052602060002090600602016040518060c0016040529081600082015481526020016001820180546116f6906123ac565b80601f0160208091040260200160405190810160405280929190818152602001828054611722906123ac565b801561176f5780601f106117445761010080835404028352916020019161176f565b820191906000526020600020905b81548152906001019060200180831161175257829003601f168201915b50505050508152602001600282018054611788906123ac565b80601f01602080910402602001604051908101604052809291908181526020018280546117b4906123ac565b80156118015780601f106117d657610100808354040283529160200191611801565b820191906000526020600020905b8154815290600101906020018083116117e457829003601f168201915b5050505050815260200160038201805461181a906123ac565b80601f0160208091040260200160405190810160405280929190818152602001828054611846906123ac565b80156118935780601f1061186857610100808354040283529160200191611893565b820191906000526020600020905b81548152906001019060200180831161187657829003601f168201915b50505050508152602001600482015481526020016005820160009054906101000a900473ffffffffffffffffffffffffffffffffffffffff1673ffffffffffffffffffffffffffffffffffffffff1673ffffffffffffffffffffffffffffffffffffffff168152505082828151811061190f5761190e61234e565b5b6020026020010181905250808060010191505061169c565b5080925050505b92915050565b6002818154811061194457600080fd5b906000526020600020906006020160009150905080600001549080600101805461196d906123ac565b80601f0160208091040260200160405190810160405280929190818152602001828054611999906123ac565b80156119e65780601f106119bb576101008083540402835291602001916119e6565b820191906000526020600020905b8154815290600101906020018083116119c957829003601f168201915b5050505050908060020180546119fb906123ac565b80601f0160208091040260200160405190810160405280929190818152602001828054611a27906123ac565b8015611a745780601f10611a4957610100808354040283529160200191611a74565b820191906000526020600020905b815481529060010190602001808311611a5757829003601f168201915b505050505090806003018054611a89906123ac565b80601f0160208091040260200160405190810160405280929190818152602001828054611ab5906123ac565b8015611b025780601f10611ad757610100808354040283529160200191611b02565b820191906000526020600020905b815481529060010190602001808311611ae557829003601f168201915b5050505050908060040154908060050160009054906101000a900473ffffffffffffffffffffffffffffffffffffffff16905086565b508054611b44906123ac565b6000825580601f10611b565750611b75565b601f016020900490600052602060002090810190611b749190611bc4565b5b50565b6040518060c001604052806000815260200160608152602001606081526020016060815260200160008152602001600073ffffffffffffffffffffffffffffffffffffffff1681525090565b5b80821115611bdd576000816000905550600101611bc5565b5090565b6000604051905090565b600080fd5b600080fd5b6000819050919050565b611c0881611bf5565b8114611c1357600080fd5b50565b600081359050611c2581611bff565b92915050565b600060208284031215611c4157611c40611beb565b5b6000611c4f84828501611c16565b91505092915050565b600080fd5b600080fd5b6000601f19601f8301169050919050565b7f4e487b7100000000000000000000000000000000000000000000000000000000600052604160045260246000fd5b611cab82611c62565b810181811067ffffffffffffffff82111715611cca57611cc9611c73565b5b80604052505050565b6000611cdd611be1565b9050611ce98282611ca2565b919050565b600067ffffffffffffffff821115611d0957611d08611c73565b5b611d1282611c62565b9050602081019050919050565b82818337600083830152505050565b6000611d41611d3c84611cee565b611cd3565b905082815260208101848484011115611d5d57611d5c611c5d565b5b611d68848285611d1f565b509392505050565b600082601f830112611d8557611d84611c58565b5b8135611d95848260208601611d2e565b91505092915050565b60008060408385031215611db557611db4611beb565b5b6000611dc385828601611c16565b925050602083013567ffffffffffffffff811115611de457611de3611bf0565b5b611df085828601611d70565b9150509250929050565b600080fd5b600080fd5b60008083601f840112611e1a57611e19611c58565b5b8235905067ffffffffffffffff811115611e3757611e36611dfa565b5b602083019150836001820283011115611e5357611e52611dff565b5b9250929050565b60008060008060008060006080888a031215611e7957611e78611beb565b5b6000611e878a828b01611c16565b975050602088013567ffffffffffffffff811115611ea857611ea7611bf0565b5b611eb48a828b01611e04565b9650965050604088013567ffffffffffffffff811115611ed757611ed6611bf0565b5b611ee38a828b01611e04565b9450945050606088013567ffffffffffffffff811115611f0657611f05611bf0565b5b611f128a828b01611e04565b925092505092959891949750929550565b600073ffffffffffffffffffffffffffffffffffffffff82169050919050565b6000611f4e82611f23565b9050919050565b611f5e81611f43565b82525050565b6000602082019050611f796000830184611f55565b92915050565b611f8881611bf5565b82525050565b6000602082019050611fa36000830184611f7f565b92915050565b60008060408385031215611fc057611fbf611beb565b5b6000611fce85828601611c16565b9250506020611fdf85828601611c16565b9150509250929050565b600081519050919050565b600082825260208201905092915050565b6000819050602082019050919050565b61201e81611bf5565b82525050565b600081519050919050565b600082825260208201905092915050565b60005b8381101561205e578082015181840152602081019050612043565b60008484015250505050565b600061207582612024565b61207f818561202f565b935061208f818560208601612040565b61209881611c62565b840191505092915050565b60006120ae82611f23565b9050919050565b6120be816120a3565b82525050565b600060c0830160008301516120dc6000860182612015565b50602083015184820360208601526120f4828261206a565b9150506040830151848203604086015261210e828261206a565b91505060608301518482036060860152612128828261206a565b915050608083015161213d6080860182612015565b5060a083015161215060a08601826120b5565b508091505092915050565b600061216783836120c4565b905092915050565b6000602082019050919050565b600061218782611fe9565b6121918185611ff4565b9350836020820285016121a385612005565b8060005b858110156121df57848403895281516121c0858261215b565b94506121cb8361216f565b925060208a019950506001810190506121a7565b50829750879550505050505092915050565b6000602082019050818103600083015261220b818461217c565b905092915050565b600082825260208201905092915050565b600061222f82612024565b6122398185612213565b9350612249818560208601612040565b61225281611c62565b840191505092915050565b612266816120a3565b82525050565b600060c0820190506122816000830189611f7f565b81810360208301526122938188612224565b905081810360408301526122a78187612224565b905081810360608301526122bb8186612224565b90506122ca6080830185611f7f565b6122d760a083018461225d565b979650505050505050565b7f496e76616c696420696e64657800000000000000000000000000000000000000600082015250565b6000612318600d83612213565b9150612323826122e2565b602082019050919050565b600060208201905081810360008301526123478161230b565b9050919050565b7f4e487b7100000000000000000000000000000000000000000000000000000000600052603260045260246000fd5b7f4e487b7100000000000000000000000000000000000000000000000000000000600052602260045260246000fd5b600060028204905060018216806123c457607f821691505b6020821081036123d7576123d661237d565b5b50919050565b7f4f7065726174696f6e206e6f7420616c6c6f7765640000000000000000000000600082015250565b6000612413601583612213565b915061241e826123dd565b602082019050919050565b6000602082019050818103600083015261244281612406565b9050919050565b7f4e487b7100000000000000000000000000000000000000000000000000000000600052601160045260246000fd5b600061248382611bf5565b915061248e83611bf5565b92508282039050818111156124a6576124a5612449565b5b92915050565b6000815490506124bb816123ac565b9050919050565b60008190508160005260206000209050919050565b60006020601f8301049050919050565b600082821b905092915050565b6000600883026125247fffffffffffffffffffffffffffffffffffffffffffffffffffffffffffffffff826124e7565b61252e86836124e7565b95508019841693508086168417925050509392505050565b6000819050919050565b600061256b61256661256184611bf5565b612546565b611bf5565b9050919050565b6000819050919050565b61258583612550565b61259961259182612572565b8484546124f4565b825550505050565b600090565b6125ae6125a1565b6125b981848461257c565b505050565b5b818110156125dd576125d26000826125a6565b6001810190506125bf565b5050565b601f821115612622576125f3816124c2565b6125fc846124d7565b8101602085101561260b578190505b61261f612617856124d7565b8301826125be565b50505b505050565b600082821c905092915050565b600061264560001984600802612627565b1980831691505092915050565b600061265e8383612634565b9150826002028217905092915050565b81810361267c575050612754565b612685826124ac565b67ffffffffffffffff81111561269e5761269d611c73565b5b6126a882546123ac565b6126b38282856125e1565b6000601f8311600181146126e257600084156126d0578287015490505b6126da8582612652565b86555061274d565b601f1984166126f0876124c2565b96506126fb866124c2565b60005b82811015612723578489015482556001820191506001850194506020810190506126fe565b86831015612740578489015461273c601f891682612634565b8355505b6001600288020188555050505b5050505050505b565b61275f82612024565b67ffffffffffffffff81111561277857612777611c73565b5b61278282546123ac565b61278d8282856125e1565b600060209050601f8311600181146127c057600084156127ae578287015190505b6127b88582612652565b865550612820565b601f1984166127ce866124c2565b60005b828110156127f6578489015182556001820191506020850194506020810190506127d1565b86831015612813578489015161280f601f891682612634565b8355505b6001600288020188555050505b505050505050565b7f4e487b7100000000000000000000000000000000000000000000000000000000600052603160045260246000fd5b600081905092915050565b50565b6000612872600083612857565b915061287d82612862565b600082019050919050565b600061289382612865565b9150819050919050565b7f4661696c656420746f2073656e64204574686572000000000000000000000000600082015250565b60006128d3601483612213565b91506128de8261289d565b602082019050919050565b60006020820190508181036000830152612902816128c6565b9050919050565b600061291482611bf5565b915061291f83611bf5565b925082820261292d81611bf5565b9150828204841483151761294457612943612449565b5b5092915050565b7f496e76616c696420757365724e616d65206f72206d6573736167650000000000600082015250565b6000612981601b83612213565b915061298c8261294b565b602082019050919050565b600060208201905081810360008301526129b081612974565b9050919050565b7f496e70757420706172616d657465722065786365656473206d6178206c656e6760008201527f7468000000000000000000000000000000000000000000000000000000000000602082015250565b6000612a13602283612213565b9150612a1e826129b7565b604082019050919050565b60006020820190508181036000830152612a4281612a06565b9050919050565b6000612a558385612213565b9350612a62838584611d1f565b612a6b83611c62565b840190509392505050565b600060a082019050612a8b600083018b611f7f565b612a98602083018a611f7f565b8181036040830152612aab81888a612a49565b90508181036060830152612ac0818688612a49565b90508181036080830152612ad5818486612a49565b90509998505050505050505050565b7f73697a65206d757374206265203c3d2032350000000000000000000000000000600082015250565b6000612b1a601283612213565b9150612b2582612ae4565b602082019050919050565b60006020820190508181036000830152612b4981612b0d565b9050919050565b6000612b5b82611bf5565b9150612b6683611bf5565b9250828201905080821115612b7e57612b7d612449565b5b9291505056fea2646970667358221220b22c99ac99247f2598c6ec991fde6f1fd675c5ee40ad7329ef8bb0acb68bb39c64736f6c63430008170033",
  "linkReferences": {},
  "deployedLinkReferences": {}
}