{
  "_format": "hh-sol-artifact-1",
  "contractName": "LocalBuyMeACoffeeContract",
  "sourceName": "src/LocalContract.sol",
  "abi": [
    {
      "inputs": [],
      "stateMutability": "nonpayable",
      "type": "constructor"
    },
    {
      "inputs": [],
      "name": "InsufficientFunds",
      "type": "error"
    },
    {
      "inputs": [
        {
          "internalType": "string",
          "name": "message",
          "type": "string"
        }
      ],
      "name": "InvalidArguments",
      "type": "error"
    },
    {
      "anonymous": false,
      "inputs": [
        {
          "indexed": true,
          "internalType": "address",
          "name": "buyer",
          "type": "address"
        },
        {
          "indexed": false,
          "internalType": "uint256",
          "name": "price",
          "type": "uint256"
        }
      ],
      "name": "BuyMeACoffeeEvent",
      "type": "event"
    },
    {
      "anonymous": false,
      "inputs": [
        {
          "indexed": true,
          "internalType": "address",
          "name": "userAddress",
          "type": "address"
        },
        {
          "indexed": false,
          "internalType": "uint256",
          "name": "time",
          "type": "uint256"
        },
        {
          "indexed": false,
          "internalType": "string",
          "name": "userName",
          "type": "string"
        },
        {
          "indexed": false,
          "internalType": "string",
          "name": "message",
          "type": "string"
        }
      ],
      "name": "NewMemo",
      "type": "event"
    },
    {
      "inputs": [
        {
          "internalType": "string",
          "name": "userName",
          "type": "string"
        },
        {
          "internalType": "string",
          "name": "message",
          "type": "string"
        }
      ],
      "name": "buyCoffee",
      "outputs": [],
      "stateMutability": "payable",
      "type": "function"
    },
    {
      "inputs": [
        {
          "internalType": "uint256",
          "name": "",
          "type": "uint256"
        }
      ],
      "name": "memos",
      "outputs": [
        {
          "internalType": "string",
          "name": "userName",
          "type": "string"
        },
        {
          "internalType": "string",
          "name": "message",
          "type": "string"
        },
        {
          "internalType": "uint256",
          "name": "time",
          "type": "uint256"
        },
        {
          "internalType": "address",
          "name": "userAddress",
          "type": "address"
        }
      ],
      "stateMutability": "view",
      "type": "function"
    },
    {
      "inputs": [],
      "name": "owner",
      "outputs": [
        {
          "internalType": "address payable",
          "name": "",
          "type": "address"
        }
      ],
      "stateMutability": "view",
      "type": "function"
    },
    {
      "inputs": [],
      "name": "price",
      "outputs": [
        {
          "internalType": "uint256",
          "name": "",
          "type": "uint256"
        }
      ],
      "stateMutability": "view",
      "type": "function"
    }
  ],
  "bytecode": "0x608060405234801561001057600080fd5b50336000806101000a81548173ffffffffffffffffffffffffffffffffffffffff021916908373ffffffffffffffffffffffffffffffffffffffff160217905550655af3107a4000600181905550610f5e8061006d6000396000f3fe60806040526004361061003f5760003560e01c8063204206e1146100445780638da5cb5b14610060578063a035b1fe1461008b578063e8dfdf04146100b6575b600080fd5b61005e60048036038101906100599190610813565b6100f6565b005b34801561006c57600080fd5b5061007561047d565b60405161008291906108d5565b60405180910390f35b34801561009757600080fd5b506100a06104a1565b6040516100ad9190610909565b60405180910390f35b3480156100c257600080fd5b506100dd60048036038101906100d89190610950565b6104a7565b6040516100ed9493929190610a2e565b60405180910390f35b600154341015610132576040517f356680b700000000000000000000000000000000000000000000000000000000815260040160405180910390fd5b3373ffffffffffffffffffffffffffffffffffffffff167f6c786e8cbaf5f056129cce184bf072f2a16cb9af797b5d5dc57f280897eddaa1346040516101789190610909565b60405180910390a26101a1604051806060016040528060218152602001610f0860219139610617565b6000848490501480156101b75750600082829050145b156101f7576040517f15d8e70a0000000000000000000000000000000000000000000000000000000081526004016101ee90610acd565b60405180910390fd5b61027a6040518060400160405280601081526020017f4d656d6f20437265617465642042793a0000000000000000000000000000000081525085858080601f016020809104026020016040519081016040528093929190818152602001838380828437600081840152601f19601f820116905080830192505050505050506106b0565b6002604051806080016040528086868080601f016020809104026020016040519081016040528093929190818152602001838380828437600081840152601f19601f82011690508083019250505050505050815260200184848080601f016020809104026020016040519081016040528093929190818152602001838380828437600081840152601f19601f8201169050808301925050505050505081526020014281526020013373ffffffffffffffffffffffffffffffffffffffff16815250908060018154018082558091505060019003906000526020600020906004020160009091909190915060008201518160000190816103799190610d28565b50602082015181600101908161038f9190610d28565b506040820151816002015560608201518160030160006101000a81548173ffffffffffffffffffffffffffffffffffffffff021916908373ffffffffffffffffffffffffffffffffffffffff16021790555050503373ffffffffffffffffffffffffffffffffffffffff167fc56140e05f516509ae28110e0f72e17558a7561630dad2647c3ae87d986e365c4286868686604051610431959493929190610e36565b60405180910390a26104776040518060400160405280601481526020017f4e6577204d656d6f2077617320656d6974746564000000000000000000000000815250610617565b50505050565b60008054906101000a900473ffffffffffffffffffffffffffffffffffffffff1681565b60015481565b600281815481106104b757600080fd5b90600052602060002090600402016000915090508060000180546104da90610b4b565b80601f016020809104026020016040519081016040528092919081815260200182805461050690610b4b565b80156105535780601f1061052857610100808354040283529160200191610553565b820191906000526020600020905b81548152906001019060200180831161053657829003601f168201915b50505050509080600101805461056890610b4b565b80601f016020809104026020016040519081016040528092919081815260200182805461059490610b4b565b80156105e15780601f106105b6576101008083540402835291602001916105e1565b820191906000526020600020905b8154815290600101906020018083116105c457829003601f168201915b5050505050908060020154908060030160009054906101000a900473ffffffffffffffffffffffffffffffffffffffff16905084565b6106ad8160405160240161062b9190610e7f565b6040516020818303038152906040527f41304fac000000000000000000000000000000000000000000000000000000007bffffffffffffffffffffffffffffffffffffffffffffffffffffffff19166020820180517bffffffffffffffffffffffffffffffffffffffffffffffffffffffff838183161783525050505061074c565b50565b61074882826040516024016106c6929190610ea1565b6040516020818303038152906040527f4b5c4277000000000000000000000000000000000000000000000000000000007bffffffffffffffffffffffffffffffffffffffffffffffffffffffff19166020820180517bffffffffffffffffffffffffffffffffffffffffffffffffffffffff838183161783525050505061074c565b5050565b6107638161075b61076661078f565b63ffffffff16565b50565b60008151905060006a636f6e736f6c652e6c6f679050602083016000808483855afa5050505050565b61079a819050919050565b6107a2610ed8565b565b600080fd5b600080fd5b600080fd5b600080fd5b600080fd5b60008083601f8401126107d3576107d26107ae565b5b8235905067ffffffffffffffff8111156107f0576107ef6107b3565b5b60208301915083600182028301111561080c5761080b6107b8565b5b9250929050565b6000806000806040858703121561082d5761082c6107a4565b5b600085013567ffffffffffffffff81111561084b5761084a6107a9565b5b610857878288016107bd565b9450945050602085013567ffffffffffffffff81111561087a576108796107a9565b5b610886878288016107bd565b925092505092959194509250565b600073ffffffffffffffffffffffffffffffffffffffff82169050919050565b60006108bf82610894565b9050919050565b6108cf816108b4565b82525050565b60006020820190506108ea60008301846108c6565b92915050565b6000819050919050565b610903816108f0565b82525050565b600060208201905061091e60008301846108fa565b92915050565b61092d816108f0565b811461093857600080fd5b50565b60008135905061094a81610924565b92915050565b600060208284031215610966576109656107a4565b5b60006109748482850161093b565b91505092915050565b600081519050919050565b600082825260208201905092915050565b60005b838110156109b757808201518184015260208101905061099c565b60008484015250505050565b6000601f19601f8301169050919050565b60006109df8261097d565b6109e98185610988565b93506109f9818560208601610999565b610a02816109c3565b840191505092915050565b6000610a1882610894565b9050919050565b610a2881610a0d565b82525050565b60006080820190508181036000830152610a4881876109d4565b90508181036020830152610a5c81866109d4565b9050610a6b60408301856108fa565b610a786060830184610a1f565b95945050505050565b7f496e76616c696420757365724e616d65206f72206d6573736167650000000000600082015250565b6000610ab7601b83610988565b9150610ac282610a81565b602082019050919050565b60006020820190508181036000830152610ae681610aaa565b9050919050565b7f4e487b7100000000000000000000000000000000000000000000000000000000600052604160045260246000fd5b7f4e487b7100000000000000000000000000000000000000000000000000000000600052602260045260246000fd5b60006002820490506001821680610b6357607f821691505b602082108103610b7657610b75610b1c565b5b50919050565b60008190508160005260206000209050919050565b60006020601f8301049050919050565b600082821b905092915050565b600060088302610bde7fffffffffffffffffffffffffffffffffffffffffffffffffffffffffffffffff82610ba1565b610be88683610ba1565b95508019841693508086168417925050509392505050565b6000819050919050565b6000610c25610c20610c1b846108f0565b610c00565b6108f0565b9050919050565b6000819050919050565b610c3f83610c0a565b610c53610c4b82610c2c565b848454610bae565b825550505050565b600090565b610c68610c5b565b610c73818484610c36565b505050565b5b81811015610c9757610c8c600082610c60565b600181019050610c79565b5050565b601f821115610cdc57610cad81610b7c565b610cb684610b91565b81016020851015610cc5578190505b610cd9610cd185610b91565b830182610c78565b50505b505050565b600082821c905092915050565b6000610cff60001984600802610ce1565b1980831691505092915050565b6000610d188383610cee565b9150826002028217905092915050565b610d318261097d565b67ffffffffffffffff811115610d4a57610d49610aed565b5b610d548254610b4b565b610d5f828285610c9b565b600060209050601f831160018114610d925760008415610d80578287015190505b610d8a8582610d0c565b865550610df2565b601f198416610da086610b7c565b60005b82811015610dc857848901518255600182019150602085019450602081019050610da3565b86831015610de55784890151610de1601f891682610cee565b8355505b6001600288020188555050505b505050505050565b82818337600083830152505050565b6000610e158385610988565b9350610e22838584610dfa565b610e2b836109c3565b840190509392505050565b6000606082019050610e4b60008301886108fa565b8181036020830152610e5e818688610e09565b90508181036040830152610e73818486610e09565b90509695505050505050565b60006020820190508181036000830152610e9981846109d4565b905092915050565b60006040820190508181036000830152610ebb81856109d4565b90508181036020830152610ecf81846109d4565b90509392505050565b7f4e487b7100000000000000000000000000000000000000000000000000000000600052605160045260246000fdfe427579206d65206120636f66666565206576656e742077617320656d6974746564a2646970667358221220b8fa1d6efee7b616444c266848203e463c3d9badad1a77073b1e154100de872364736f6c63430008170033",
  "linkReferences": {},
  "deployedLinkReferences": {}
}